{
  "contractName": "FlightSuretyData",
  "abi": [
    {
      "inputs": [
        {
          "internalType": "address",
          "name": "airlineAddress",
          "type": "address"
        }
      ],
      "payable": true,
      "stateMutability": "payable",
      "type": "constructor"
    },
    {
      "anonymous": false,
      "inputs": [
        {
          "indexed": false,
          "internalType": "address",
          "name": "airline",
          "type": "address"
        }
      ],
      "name": "AirlineFunded",
      "type": "event"
    },
    {
      "anonymous": false,
      "inputs": [
        {
          "indexed": false,
          "internalType": "address",
          "name": "airline",
          "type": "address"
        }
      ],
      "name": "AirlineRegistered",
      "type": "event"
    },
    {
      "anonymous": false,
      "inputs": [
        {
          "indexed": false,
          "internalType": "bytes32",
          "name": "flightKey",
          "type": "bytes32"
        }
      ],
      "name": "FlightRegistered",
      "type": "event"
    },
    {
      "anonymous": false,
      "inputs": [
        {
          "indexed": false,
          "internalType": "bytes32",
          "name": "flightKey",
          "type": "bytes32"
        },
        {
          "indexed": false,
          "internalType": "address",
          "name": "passenger",
          "type": "address"
        },
        {
          "indexed": false,
          "internalType": "uint256",
          "name": "amount",
          "type": "uint256"
        }
      ],
      "name": "InsureeCredited",
      "type": "event"
    },
    {
      "anonymous": false,
      "inputs": [
        {
          "indexed": false,
          "internalType": "bytes32",
          "name": "flightKey",
          "type": "bytes32"
        },
        {
          "indexed": false,
          "internalType": "address",
          "name": "passenger",
          "type": "address"
        },
        {
          "indexed": false,
          "internalType": "uint256",
          "name": "amount",
          "type": "uint256"
        },
        {
          "indexed": false,
          "internalType": "uint256",
          "name": "payout",
          "type": "uint256"
        }
      ],
      "name": "PassengerInsured",
      "type": "event"
    },
    {
      "anonymous": false,
      "inputs": [
        {
          "indexed": false,
          "internalType": "address",
          "name": "payoutAddress",
          "type": "address"
        },
        {
          "indexed": false,
          "internalType": "uint256",
          "name": "amount",
          "type": "uint256"
        }
      ],
      "name": "PayInsuree",
      "type": "event"
    },
    {
      "anonymous": false,
      "inputs": [
        {
          "indexed": false,
          "internalType": "bytes32",
          "name": "flightKey",
          "type": "bytes32"
        },
        {
          "indexed": false,
          "internalType": "uint8",
          "name": "statusCode",
          "type": "uint8"
        }
      ],
      "name": "ProcessedFlightStatus",
      "type": "event"
    },
    {
      "payable": true,
      "stateMutability": "payable",
      "type": "fallback"
    },
    {
      "constant": true,
      "inputs": [
        {
          "internalType": "bytes32",
          "name": "",
          "type": "bytes32"
        },
        {
          "internalType": "uint256",
          "name": "",
          "type": "uint256"
        }
      ],
      "name": "flightInsuranceClaims",
      "outputs": [
        {
          "internalType": "address",
          "name": "sPassenger",
          "type": "address"
        },
        {
          "internalType": "uint256",
          "name": "sPuchaseAmount",
          "type": "uint256"
        },
        {
          "internalType": "uint256",
          "name": "sPayoutPercentage",
          "type": "uint256"
        },
        {
          "internalType": "bool",
          "name": "sCredited",
          "type": "bool"
        }
      ],
      "payable": false,
      "stateMutability": "view",
      "type": "function"
    },
    {
      "constant": true,
      "inputs": [
        {
          "internalType": "bytes32",
          "name": "",
          "type": "bytes32"
        }
      ],
      "name": "flights",
      "outputs": [
        {
          "internalType": "bool",
          "name": "sIsRegistered",
          "type": "bool"
        },
        {
          "internalType": "bytes32",
          "name": "sFlightKey",
          "type": "bytes32"
        },
        {
          "internalType": "address",
          "name": "sAirline",
          "type": "address"
        },
        {
          "internalType": "string",
          "name": "sFlightNumber",
          "type": "string"
        },
        {
          "internalType": "uint8",
          "name": "sStatusCode",
          "type": "uint8"
        },
        {
          "internalType": "uint256",
          "name": "sTimestamp",
          "type": "uint256"
        },
        {
          "internalType": "string",
          "name": "sDepartureLocation",
          "type": "string"
        },
        {
          "internalType": "string",
          "name": "sArrivalLocation",
          "type": "string"
        }
      ],
      "payable": false,
      "stateMutability": "view",
      "type": "function"
    },
    {
      "constant": true,
      "inputs": [
        {
          "internalType": "uint256",
          "name": "",
          "type": "uint256"
        }
      ],
      "name": "registeredFlights",
      "outputs": [
        {
          "internalType": "bytes32",
          "name": "",
          "type": "bytes32"
        }
      ],
      "payable": false,
      "stateMutability": "view",
      "type": "function"
    },
    {
      "constant": true,
      "inputs": [
        {
          "internalType": "address",
          "name": "",
          "type": "address"
        }
      ],
      "name": "withdrawableFunds",
      "outputs": [
        {
          "internalType": "uint256",
          "name": "",
          "type": "uint256"
        }
      ],
      "payable": false,
      "stateMutability": "view",
      "type": "function"
    },
    {
      "constant": true,
      "inputs": [],
      "name": "isOperational",
      "outputs": [
        {
          "internalType": "bool",
          "name": "",
          "type": "bool"
        }
      ],
      "payable": false,
      "stateMutability": "view",
      "type": "function"
    },
    {
      "constant": false,
      "inputs": [
        {
          "internalType": "bool",
          "name": "mode",
          "type": "bool"
        }
      ],
      "name": "setOperatingStatus",
      "outputs": [],
      "payable": false,
      "stateMutability": "nonpayable",
      "type": "function"
    },
    {
      "constant": true,
      "inputs": [
        {
          "internalType": "address",
          "name": "airline",
          "type": "address"
        }
      ],
      "name": "isAirlineRegistered",
      "outputs": [
        {
          "internalType": "bool",
          "name": "",
          "type": "bool"
        }
      ],
      "payable": false,
      "stateMutability": "view",
      "type": "function"
    },
    {
      "constant": true,
      "inputs": [
        {
          "internalType": "address",
          "name": "airline",
          "type": "address"
        }
      ],
      "name": "isAirlineFunded",
      "outputs": [
        {
          "internalType": "bool",
          "name": "",
          "type": "bool"
        }
      ],
      "payable": false,
      "stateMutability": "view",
      "type": "function"
    },
    {
      "constant": true,
      "inputs": [
        {
          "internalType": "bytes32",
          "name": "flightKey",
          "type": "bytes32"
        }
      ],
      "name": "isFlightRegistered",
      "outputs": [
        {
          "internalType": "bool",
          "name": "",
          "type": "bool"
        }
      ],
      "payable": false,
      "stateMutability": "view",
      "type": "function"
    },
    {
      "constant": true,
      "inputs": [
        {
          "internalType": "bytes32",
          "name": "flightKey",
          "type": "bytes32"
        }
      ],
      "name": "isFlightLanded",
      "outputs": [
        {
          "internalType": "bool",
          "name": "",
          "type": "bool"
        }
      ],
      "payable": false,
      "stateMutability": "view",
      "type": "function"
    },
    {
      "constant": true,
      "inputs": [
        {
          "internalType": "bytes32",
          "name": "flightKey",
          "type": "bytes32"
        },
        {
          "internalType": "address",
          "name": "passenger",
          "type": "address"
        }
      ],
      "name": "isPassengerInsuredForFlight",
      "outputs": [
        {
          "internalType": "bool",
          "name": "",
          "type": "bool"
        }
      ],
      "payable": false,
      "stateMutability": "view",
      "type": "function"
    },
    {
      "constant": false,
      "inputs": [
        {
          "internalType": "address",
          "name": "newAirline",
          "type": "address"
        },
        {
          "internalType": "address",
          "name": "registeringAirline",
          "type": "address"
        }
      ],
      "name": "registerAirline",
      "outputs": [],
      "payable": false,
      "stateMutability": "nonpayable",
      "type": "function"
    },
    {
      "constant": false,
      "inputs": [
        {
          "internalType": "address",
          "name": "airline",
          "type": "address"
        },
        {
          "internalType": "uint256",
          "name": "amount",
          "type": "uint256"
        }
      ],
      "name": "fundAirline",
      "outputs": [
        {
          "internalType": "bool",
          "name": "",
          "type": "bool"
        }
      ],
      "payable": false,
      "stateMutability": "nonpayable",
      "type": "function"
    },
    {
      "constant": true,
      "inputs": [],
      "name": "getRegisteredAirlineCount",
      "outputs": [
        {
          "internalType": "uint256",
          "name": "",
          "type": "uint256"
        }
      ],
      "payable": false,
      "stateMutability": "view",
      "type": "function"
    },
    {
      "constant": true,
      "inputs": [],
      "name": "getFundedAirlineCount",
      "outputs": [
        {
          "internalType": "uint256",
          "name": "",
          "type": "uint256"
        }
      ],
      "payable": false,
      "stateMutability": "view",
      "type": "function"
    },
    {
      "constant": false,
      "inputs": [
        {
          "internalType": "bytes32",
          "name": "flightKey",
          "type": "bytes32"
        },
        {
          "internalType": "uint256",
          "name": "timestamp",
          "type": "uint256"
        },
        {
          "internalType": "address",
          "name": "airline",
          "type": "address"
        },
        {
          "internalType": "string",
          "name": "flightNumber",
          "type": "string"
        },
        {
          "internalType": "string",
          "name": "departureLocation",
          "type": "string"
        },
        {
          "internalType": "string",
          "name": "arrivalLocation",
          "type": "string"
        }
      ],
      "name": "registerFlight",
      "outputs": [],
      "payable": true,
      "stateMutability": "payable",
      "type": "function"
    },
    {
      "constant": true,
      "inputs": [],
      "name": "getCountRegisteredFlights",
      "outputs": [
        {
          "internalType": "uint256",
          "name": "",
          "type": "uint256"
        }
      ],
      "payable": false,
      "stateMutability": "view",
      "type": "function"
    },
    {
      "constant": false,
      "inputs": [
        {
          "internalType": "address",
          "name": "airline",
          "type": "address"
        },
        {
          "internalType": "string",
          "name": "flight",
          "type": "string"
        },
        {
          "internalType": "uint256",
          "name": "timestamp",
          "type": "uint256"
        },
        {
          "internalType": "uint8",
          "name": "statusCode",
          "type": "uint8"
        }
      ],
      "name": "processFlightStatus",
      "outputs": [],
      "payable": false,
      "stateMutability": "nonpayable",
      "type": "function"
    },
    {
      "constant": false,
      "inputs": [
        {
          "internalType": "bytes32",
          "name": "flightKey",
          "type": "bytes32"
        },
        {
          "internalType": "address",
          "name": "passenger",
          "type": "address"
        },
        {
          "internalType": "uint256",
          "name": "amount",
          "type": "uint256"
        },
        {
          "internalType": "uint256",
          "name": "payout",
          "type": "uint256"
        }
      ],
      "name": "buyInsurance",
      "outputs": [],
      "payable": true,
      "stateMutability": "payable",
      "type": "function"
    },
    {
      "constant": false,
      "inputs": [
        {
          "internalType": "address payable",
          "name": "payoutAddress",
          "type": "address"
        }
      ],
      "name": "pay",
      "outputs": [],
      "payable": true,
      "stateMutability": "payable",
      "type": "function"
    }
  ],
  "bytecode": "0x60806040526001600060146101000a81548160ff02191690831515021790555060006001556000600255604051612d63380380612d638339818101604052602081101561004b57600080fd5b8101908080519060200190929190505050336000806101000a81548173ffffffffffffffffffffffffffffffffffffffff021916908373ffffffffffffffffffffffffffffffffffffffff16021790555060405180606001604052806001151581526020016000151581526020016000815250600360008373ffffffffffffffffffffffffffffffffffffffff1673ffffffffffffffffffffffffffffffffffffffff16815260200190815260200160002060008201518160000160006101000a81548160ff02191690831515021790555060208201518160000160016101000a81548160ff0219169083151502179055506040820151816001015590505050612c098061015a6000396000f3fe60806040526004361061011f5760003560e01c806358ac36a3116100a0578063c7ba501811610064578063c7ba50181461095b578063cd905dff146109cc578063e7bdde3b146109fb578063f1a81e7214610ab8578063f53b6d6514610b2b5761011f565b806358ac36a31461064257806374e514e4146106955780638a351c08146106e8578063b872a93e14610905578063b9a3ecab146109305761011f565b80632b503b70116100e75780632b503b70146104525780632f30cabd146104f057806342bd3d93146105555780634e268e3c146105c8578063540635b4146105f35761011f565b8063010c5c97146101215780630c11dedd1461018a578063110466ed146101ce5780631c5bbc301461020b57806320c5375e1461026d575b005b34801561012d57600080fd5b506101706004803603602081101561014457600080fd5b81019080803573ffffffffffffffffffffffffffffffffffffffff169060200190929190505050610b94565b604051808215151515815260200191505060405180910390f35b6101cc600480360360208110156101a057600080fd5b81019080803573ffffffffffffffffffffffffffffffffffffffff169060200190929190505050610c51565b005b3480156101da57600080fd5b50610209600480360360208110156101f157600080fd5b81019080803515159060200190929190505050610ec4565b005b61026b6004803603608081101561022157600080fd5b8101908080359060200190929190803573ffffffffffffffffffffffffffffffffffffffff1690602001909291908035906020019092919080359060200190929190505050610fa3565b005b34801561027957600080fd5b506102a66004803603602081101561029057600080fd5b8101908080359060200190929190505050611276565b60405180891515151581526020018881526020018773ffffffffffffffffffffffffffffffffffffffff1673ffffffffffffffffffffffffffffffffffffffff168152602001806020018660ff1660ff1681526020018581526020018060200180602001848103845289818151815260200191508051906020019080838360005b83811015610342578082015181840152602081019050610327565b50505050905090810190601f16801561036f5780820380516001836020036101000a031916815260200191505b50848103835286818151815260200191508051906020019080838360005b838110156103a857808201518184015260208101905061038d565b50505050905090810190601f1680156103d55780820380516001836020036101000a031916815260200191505b50848103825285818151815260200191508051906020019080838360005b8381101561040e5780820151818401526020810190506103f3565b50505050905090810190601f16801561043b5780820380516001836020036101000a031916815260200191505b509b50505050505050505050505060405180910390f35b34801561045e57600080fd5b506104956004803603604081101561047557600080fd5b8101908080359060200190929190803590602001909291905050506114c0565b604051808573ffffffffffffffffffffffffffffffffffffffff1673ffffffffffffffffffffffffffffffffffffffff1681526020018481526020018381526020018215151515815260200194505050505060405180910390f35b3480156104fc57600080fd5b5061053f6004803603602081101561051357600080fd5b81019080803573ffffffffffffffffffffffffffffffffffffffff169060200190929190505050611537565b6040518082815260200191505060405180910390f35b34801561056157600080fd5b506105ae6004803603604081101561057857600080fd5b8101908080359060200190929190803573ffffffffffffffffffffffffffffffffffffffff16906020019092919050505061154f565b604051808215151515815260200191505060405180910390f35b3480156105d457600080fd5b506105dd6116c2565b6040518082815260200191505060405180910390f35b3480156105ff57600080fd5b5061062c6004803603602081101561061657600080fd5b8101908080359060200190929190505050611730565b6040518082815260200191505060405180910390f35b34801561064e57600080fd5b5061067b6004803603602081101561066557600080fd5b8101908080359060200190929190505050611751565b604051808215151515815260200191505060405180910390f35b3480156106a157600080fd5b506106ce600480360360208110156106b857600080fd5b810190808035906020019092919050505061177e565b604051808215151515815260200191505060405180910390f35b610903600480360360c08110156106fe57600080fd5b810190808035906020019092919080359060200190929190803573ffffffffffffffffffffffffffffffffffffffff1690602001909291908035906020019064010000000081111561074f57600080fd5b82018360208201111561076157600080fd5b8035906020019184600183028401116401000000008311171561078357600080fd5b91908080601f016020809104026020016040519081016040528093929190818152602001838380828437600081840152601f19601f820116905080830192505050505050509192919290803590602001906401000000008111156107e657600080fd5b8201836020820111156107f857600080fd5b8035906020019184600183028401116401000000008311171561081a57600080fd5b91908080601f016020809104026020016040519081016040528093929190818152602001838380828437600081840152601f19601f8201169050808301925050505050505091929192908035906020019064010000000081111561087d57600080fd5b82018360208201111561088f57600080fd5b803590602001918460018302840111640100000000831117156108b157600080fd5b91908080601f016020809104026020016040519081016040528093929190818152602001838380828437600081840152601f19601f8201169050808301925050505050505091929192905050506117c1565b005b34801561091157600080fd5b5061091a611b4e565b6040518082815260200191505060405180910390f35b34801561093c57600080fd5b50610945611bbf565b6040518082815260200191505060405180910390f35b34801561096757600080fd5b506109ca6004803603604081101561097e57600080fd5b81019080803573ffffffffffffffffffffffffffffffffffffffff169060200190929190803573ffffffffffffffffffffffffffffffffffffffff169060200190929190505050611c2d565b005b3480156109d857600080fd5b506109e1611f4b565b604051808215151515815260200191505060405180910390f35b348015610a0757600080fd5b50610ab660048036036080811015610a1e57600080fd5b81019080803573ffffffffffffffffffffffffffffffffffffffff16906020019092919080359060200190640100000000811115610a5b57600080fd5b820183602082011115610a6d57600080fd5b80359060200191846001830284011164010000000083111715610a8f57600080fd5b909192939192939080359060200190929190803560ff169060200190929190505050611f61565b005b348015610ac457600080fd5b50610b1160048036036040811015610adb57600080fd5b81019080803573ffffffffffffffffffffffffffffffffffffffff16906020019092919080359060200190929190505050612157565b604051808215151515815260200191505060405180910390f35b348015610b3757600080fd5b50610b7a60048036036020811015610b4e57600080fd5b81019080803573ffffffffffffffffffffffffffffffffffffffff169060200190929190505050612513565b604051808215151515815260200191505060405180910390f35b60008060149054906101000a900460ff16610bfa576040517f08c379a0000000000000000000000000000000000000000000000000000000008152600401808060200182810382526025815260200180612bb06025913960400191505060405180910390fd5b600360008373ffffffffffffffffffffffffffffffffffffffff1673ffffffffffffffffffffffffffffffffffffffff16815260200190815260200160002060000160009054906101000a900460ff169050919050565b600060149054906101000a900460ff16610cb6576040517f08c379a0000000000000000000000000000000000000000000000000000000008152600401808060200182810382526025815260200180612bb06025913960400191505060405180910390fd5b6000600760008373ffffffffffffffffffffffffffffffffffffffff1673ffffffffffffffffffffffffffffffffffffffff16815260200190815260200160002054905080471015610d70576040517f08c379a00000000000000000000000000000000000000000000000000000000081526004018080602001828103825260208152602001807f436f6e74726163742068617320696e73756666696369656e742066756e64732e81525060200191505060405180910390fd5b60008111610dc9576040517f08c379a000000000000000000000000000000000000000000000000000000000815260040180806020018281038252602b815260200180612b64602b913960400191505060405180910390fd5b6000600760008473ffffffffffffffffffffffffffffffffffffffff1673ffffffffffffffffffffffffffffffffffffffff168152602001908152602001600020819055508173ffffffffffffffffffffffffffffffffffffffff166108fc829081150290604051600060405180830381858888f19350505050158015610e54573d6000803e3d6000fd5b507f57fc3f4c3e9689e8edd2e103e164f05b9a2ffbbecaf537c96857b7ffc7fd27818282604051808373ffffffffffffffffffffffffffffffffffffffff1673ffffffffffffffffffffffffffffffffffffffff1681526020018281526020019250505060405180910390a15050565b6000809054906101000a900473ffffffffffffffffffffffffffffffffffffffff1673ffffffffffffffffffffffffffffffffffffffff163373ffffffffffffffffffffffffffffffffffffffff1614610f86576040517f08c379a000000000000000000000000000000000000000000000000000000000815260040180806020018281038252601c8152602001807f43616c6c6572206973206e6f7420636f6e7472616374206f776e65720000000081525060200191505060405180910390fd5b80600060146101000a81548160ff02191690831515021790555050565b600060149054906101000a900460ff16611008576040517f08c379a0000000000000000000000000000000000000000000000000000000008152600401808060200182810382526025815260200180612bb06025913960400191505060405180910390fd5b61101184611751565b611083576040517f08c379a000000000000000000000000000000000000000000000000000000000815260040180806020018281038252601c8152602001807f466c6967687420697320616c726561647920726567697374657265640000000081525060200191505060405180910390fd5b61108c8461177e565b156110ff576040517f08c379a00000000000000000000000000000000000000000000000000000000081526004018080602001828103825260198152602001807f466c696768742068617320616c7265616479206c616e6465640000000000000081525060200191505060405180910390fd5b6006600085815260200190815260200160002060405180608001604052808573ffffffffffffffffffffffffffffffffffffffff168152602001848152602001838152602001600015158152509080600181540180825580915050906001820390600052602060002090600402016000909192909190915060008201518160000160006101000a81548173ffffffffffffffffffffffffffffffffffffffff021916908373ffffffffffffffffffffffffffffffffffffffff160217905550602082015181600101556040820151816002015560608201518160030160006101000a81548160ff0219169083151502179055505050507f753f0260d58954470470941b79179e6d8b484688b793ecf0e43a6807b1c9120684848484604051808581526020018473ffffffffffffffffffffffffffffffffffffffff1673ffffffffffffffffffffffffffffffffffffffff16815260200183815260200182815260200194505050505060405180910390a150505050565b60046020528060005260406000206000915090508060000160009054906101000a900460ff16908060010154908060020160009054906101000a900473ffffffffffffffffffffffffffffffffffffffff1690806003018054600181600116156101000203166002900480601f0160208091040260200160405190810160405280929190818152602001828054600181600116156101000203166002900480156113615780601f1061133657610100808354040283529160200191611361565b820191906000526020600020905b81548152906001019060200180831161134457829003601f168201915b5050505050908060040160009054906101000a900460ff1690806005015490806006018054600181600116156101000203166002900480601f0160208091040260200160405190810160405280929190818152602001828054600181600116156101000203166002900480156114185780601f106113ed57610100808354040283529160200191611418565b820191906000526020600020905b8154815290600101906020018083116113fb57829003601f168201915b505050505090806007018054600181600116156101000203166002900480601f0160208091040260200160405190810160405280929190818152602001828054600181600116156101000203166002900480156114b65780601f1061148b576101008083540402835291602001916114b6565b820191906000526020600020905b81548152906001019060200180831161149957829003601f168201915b5050505050905088565b600660205281600052604060002081815481106114d957fe5b9060005260206000209060040201600091509150508060000160009054906101000a900473ffffffffffffffffffffffffffffffffffffffff16908060010154908060020154908060030160009054906101000a900460ff16905084565b60076020528060005260406000206000915090505481565b6000606060066000858152602001908152602001600020805480602002602001604051908101604052809291908181526020016000905b8282101561163d57838290600052602060002090600402016040518060800160405290816000820160009054906101000a900473ffffffffffffffffffffffffffffffffffffffff1673ffffffffffffffffffffffffffffffffffffffff1673ffffffffffffffffffffffffffffffffffffffff16815260200160018201548152602001600282015481526020016003820160009054906101000a900460ff16151515158152505081526020019060010190611586565b50505050905060008090505b81518110156116b5578373ffffffffffffffffffffffffffffffffffffffff1682828151811061167557fe5b60200260200101516000015173ffffffffffffffffffffffffffffffffffffffff1614156116a8576001925050506116bc565b8080600101915050611649565b5060009150505b92915050565b60008060149054906101000a900460ff16611728576040517f08c379a0000000000000000000000000000000000000000000000000000000008152600401808060200182810382526025815260200180612bb06025913960400191505060405180910390fd5b600154905090565b6005818154811061173d57fe5b906000526020600020016000915090505481565b60006004600083815260200190815260200160002060000160009054906101000a900460ff169050919050565b6000806004600084815260200190815260200160002060040160009054906101000a900460ff1660ff1611156117b757600190506117bc565b600090505b919050565b600060149054906101000a900460ff16611826576040517f08c379a0000000000000000000000000000000000000000000000000000000008152600401808060200182810382526025815260200180612bb06025913960400191505060405180910390fd5b83600360008273ffffffffffffffffffffffffffffffffffffffff1673ffffffffffffffffffffffffffffffffffffffff16815260200190815260200160002060000160019054906101000a900460ff166118e9576040517f08c379a00000000000000000000000000000000000000000000000000000000081526004018080602001828103825260168152602001807f4169726c696e65206973206e6f742066756e6465642e0000000000000000000081525060200191505060405180910390fd5b866004600082815260200190815260200160002060000160009054906101000a900460ff1615611981576040517f08c379a000000000000000000000000000000000000000000000000000000000815260040180806020018281038252601d8152602001807f466c6967687420697320616c726561647920726567697374657265642e00000081525060200191505060405180910390fd5b6040518061010001604052806001151581526020018981526020018773ffffffffffffffffffffffffffffffffffffffff168152602001868152602001600060ff16815260200188815260200185815260200184815250600460008a815260200190815260200160002060008201518160000160006101000a81548160ff0219169083151502179055506020820151816001015560408201518160020160006101000a81548173ffffffffffffffffffffffffffffffffffffffff021916908373ffffffffffffffffffffffffffffffffffffffff1602179055506060820151816003019080519060200190611a78929190612a7e565b5060808201518160040160006101000a81548160ff021916908360ff16021790555060a0820151816005015560c0820151816006019080519060200190611ac0929190612a7e565b5060e0820151816007019080519060200190611add929190612a7e565b5090505060058890806001815401808255809150509060018203906000526020600020016000909192909190915055507fbc2e2465316fe44b06c0fb6f524b2edb5f66caa1ba5b1fe1e10ff178e8707e14886040518082815260200191505060405180910390a15050505050505050565b60008060149054906101000a900460ff16611bb4576040517f08c379a0000000000000000000000000000000000000000000000000000000008152600401808060200182810382526025815260200180612bb06025913960400191505060405180910390fd5b600580549050905090565b60008060149054906101000a900460ff16611c25576040517f08c379a0000000000000000000000000000000000000000000000000000000008152600401808060200182810382526025815260200180612bb06025913960400191505060405180910390fd5b600254905090565b600060149054906101000a900460ff16611c92576040517f08c379a0000000000000000000000000000000000000000000000000000000008152600401808060200182810382526025815260200180612bb06025913960400191505060405180910390fd5b81600360008273ffffffffffffffffffffffffffffffffffffffff1673ffffffffffffffffffffffffffffffffffffffff16815260200190815260200160002060000160009054906101000a900460ff1615611d56576040517f08c379a000000000000000000000000000000000000000000000000000000000815260040180806020018281038252601e8152602001807f4169726c696e6520697320616c726561647920726567697374657265642e000081525060200191505060405180910390fd5b81600360008273ffffffffffffffffffffffffffffffffffffffff1673ffffffffffffffffffffffffffffffffffffffff16815260200190815260200160002060000160019054906101000a900460ff16611e19576040517f08c379a00000000000000000000000000000000000000000000000000000000081526004018080602001828103825260168152602001807f4169726c696e65206973206e6f742066756e6465642e0000000000000000000081525060200191505060405180910390fd5b60405180606001604052806001151581526020016000151581526020016000815250600360008673ffffffffffffffffffffffffffffffffffffffff1673ffffffffffffffffffffffffffffffffffffffff16815260200190815260200160002060008201518160000160006101000a81548160ff02191690831515021790555060208201518160000160016101000a81548160ff02191690831515021790555060408201518160010155905050611edc6001805461256c90919063ffffffff16565b6001819055507f89a6354fb229eda6cbc28306798727b4d524818d2c375220bc3f360f24cffaca84604051808273ffffffffffffffffffffffffffffffffffffffff1673ffffffffffffffffffffffffffffffffffffffff16815260200191505060405180910390a150505050565b60008060149054906101000a900460ff16905090565b600060149054906101000a900460ff16611fc6576040517f08c379a0000000000000000000000000000000000000000000000000000000008152600401808060200182810382526025815260200180612bb06025913960400191505060405180910390fd5b60006120178686868080601f016020809104026020016040519081016040528093929190818152602001838380828437600081840152601f19601f82011690508083019250505050505050856125f4565b90506120228161177e565b15612095576040517f08c379a000000000000000000000000000000000000000000000000000000000815260040180806020018281038252601a8152602001807f466c696768742068617320616c7265616479206c616e6465642e00000000000081525060200191505060405180910390fd5b60006004600083815260200190815260200160002060040160009054906101000a900460ff1660ff16141561210a57816004600083815260200190815260200160002060040160006101000a81548160ff021916908360ff16021790555060148260ff16141561210957612108816126b0565b5b5b7f41782cb59fdd9a4a271c11b3590217e33a4c1374c4192317b80cbcfa57e5c2078183604051808381526020018260ff1660ff1681526020019250505060405180910390a1505050505050565b60008060149054906101000a900460ff166121bd576040517f08c379a0000000000000000000000000000000000000000000000000000000008152600401808060200182810382526025815260200180612bb06025913960400191505060405180910390fd5b82600360008273ffffffffffffffffffffffffffffffffffffffff1673ffffffffffffffffffffffffffffffffffffffff16815260200190815260200160002060000160009054906101000a900460ff16612280576040517f08c379a000000000000000000000000000000000000000000000000000000000815260040180806020018281038252601a8152602001807f4169726c696e65206973206e6f7420726567697374657265642e00000000000081525060200191505060405180910390fd5b83600360008273ffffffffffffffffffffffffffffffffffffffff1673ffffffffffffffffffffffffffffffffffffffff16815260200190815260200160002060000160019054906101000a900460ff1615612344576040517f08c379a000000000000000000000000000000000000000000000000000000000815260040180806020018281038252601a8152602001807f4169726c696e6520697320616c72656164792066756e6465642e00000000000081525060200191505060405180910390fd5b6001600360008773ffffffffffffffffffffffffffffffffffffffff1673ffffffffffffffffffffffffffffffffffffffff16815260200190815260200160002060000160016101000a81548160ff0219169083151502179055506123f484600360008873ffffffffffffffffffffffffffffffffffffffff1673ffffffffffffffffffffffffffffffffffffffff1681526020019081526020016000206001015461256c90919063ffffffff16565b600360008773ffffffffffffffffffffffffffffffffffffffff1673ffffffffffffffffffffffffffffffffffffffff16815260200190815260200160002060010181905550612450600160025461256c90919063ffffffff16565b6002819055507f3c348ba34685212d5d04f432a9e569b642b180df0227a6b0c899050c4acb7af885604051808273ffffffffffffffffffffffffffffffffffffffff1673ffffffffffffffffffffffffffffffffffffffff16815260200191505060405180910390a1600360008673ffffffffffffffffffffffffffffffffffffffff1673ffffffffffffffffffffffffffffffffffffffff16815260200190815260200160002060000160019054906101000a900460ff169250505092915050565b6000600360008373ffffffffffffffffffffffffffffffffffffffff1673ffffffffffffffffffffffffffffffffffffffff16815260200190815260200160002060000160019054906101000a900460ff169050919050565b6000808284019050838110156125ea576040517f08c379a000000000000000000000000000000000000000000000000000000000815260040180806020018281038252601b8152602001807f536166654d6174683a206164646974696f6e206f766572666c6f77000000000081525060200191505060405180910390fd5b8091505092915050565b6000838383604051602001808473ffffffffffffffffffffffffffffffffffffffff1673ffffffffffffffffffffffffffffffffffffffff1660601b815260140183805190602001908083835b602083106126645780518252602082019150602081019050602083039250612641565b6001836020036101000a03801982511681845116808217855250505050505090500182815260200193505050506040516020818303038152906040528051906020012090509392505050565b600060149054906101000a900460ff16612715576040517f08c379a0000000000000000000000000000000000000000000000000000000008152600401808060200182810382526025815260200180612bb06025913960400191505060405180910390fd5b60008090505b600660008381526020019081526020016000208054905081101561296557612741612afe565b60066000848152602001908152602001600020828154811061275f57fe5b90600052602060002090600402016040518060800160405290816000820160009054906101000a900473ffffffffffffffffffffffffffffffffffffffff1673ffffffffffffffffffffffffffffffffffffffff1673ffffffffffffffffffffffffffffffffffffffff16815260200160018201548152602001600282015481526020016003820160009054906101000a900460ff16151515158152505090506001816060019015159081151581525050600061284060646128328460400151856020015161296990919063ffffffff16565b6129ef90919063ffffffff16565b90506128988160076000856000015173ffffffffffffffffffffffffffffffffffffffff1673ffffffffffffffffffffffffffffffffffffffff1681526020019081526020016000205461256c90919063ffffffff16565b60076000846000015173ffffffffffffffffffffffffffffffffffffffff1673ffffffffffffffffffffffffffffffffffffffff168152602001908152602001600020819055507fa97e30f54814b33654e70b12a4db66ef4570a990d8592b79366b2850d4ce7cae84836000015183604051808481526020018373ffffffffffffffffffffffffffffffffffffffff1673ffffffffffffffffffffffffffffffffffffffff168152602001828152602001935050505060405180910390a15050808060010191505061271b565b5050565b60008083141561297c57600090506129e9565b600082840290508284828161298d57fe5b04146129e4576040517f08c379a0000000000000000000000000000000000000000000000000000000008152600401808060200182810382526021815260200180612b8f6021913960400191505060405180910390fd5b809150505b92915050565b6000808211612a66576040517f08c379a000000000000000000000000000000000000000000000000000000000815260040180806020018281038252601a8152602001807f536166654d6174683a206469766973696f6e206279207a65726f00000000000081525060200191505060405180910390fd5b6000828481612a7157fe5b0490508091505092915050565b828054600181600116156101000203166002900490600052602060002090601f016020900481019282601f10612abf57805160ff1916838001178555612aed565b82800160010185558215612aed579182015b82811115612aec578251825591602001919060010190612ad1565b5b509050612afa9190612b3e565b5090565b6040518060800160405280600073ffffffffffffffffffffffffffffffffffffffff16815260200160008152602001600081526020016000151581525090565b612b6091905b80821115612b5c576000816000905550600101612b44565b5090565b9056fe546865726520617265206e6f2066756e647320617661696c61626c6520666f72207769746864726177616c536166654d6174683a206d756c7469706c69636174696f6e206f766572666c6f77436f6e74726163742069732063757272656e746c79206e6f74206f7065726174696f6e616ca265627a7a72315820afc67ab666461175e5dcf365847c650b7fe1e8cb7f1ce3098a589bad2a450cce64736f6c63430005110032",
  "source": "pragma solidity ^0.5.10;\n\nimport \"../node_modules/openzeppelin-solidity/contracts/math/SafeMath.sol\";\n\ncontract FlightSuretyData {\n    using SafeMath for uint256;\n\n    /********************************************************************************************/\n    /*                                       DATA VARIABLES                                     */\n    /********************************************************************************************/\n\n    address private contractOwner; // Account used to deploy contract\n    bool private operational = true; // Blocks all state changes throughout the contract if false\n\n    // Airlines\n    struct Airline {\n        bool sIsRegistered;\n        bool sIsFunded;\n        uint256 sFunds;\n    }\n    uint256 registeredAirlineCount = 0;\n    uint256 fundedAirlineCount = 0;\n    mapping(address => Airline) private airlines;\n\n    // Flights\n    struct Flight {\n        bool sIsRegistered;\n        bytes32 sFlightKey;\n        address sAirline;\n        string sFlightNumber;\n        uint8 sStatusCode;\n        uint256 sTimestamp;\n        string sDepartureLocation;\n        string sArrivalLocation;\n    }\n    mapping(bytes32 => Flight) public flights;\n    bytes32[] public registeredFlights;\n\n    // Insurance Claims\n    struct InsuranceClaim {\n        address sPassenger;\n        uint256 sPuchaseAmount;\n        uint256 sPayoutPercentage;\n        bool sCredited;\n    }\n\n    // Flight Insurance Claims\n    mapping(bytes32 => InsuranceClaim[]) public flightInsuranceClaims;\n\n    // Passenger Insurance Claims\n    mapping(address => uint256) public withdrawableFunds;\n\n    /**\n    * @dev Constructor\n    *      The deploying account becomes contractOwner\n    */\n    constructor(address airlineAddress) public payable {\n        contractOwner = msg.sender;\n        airlines[airlineAddress] = Airline(true, false, 0);\n    }\n    /********************************************************************************************/\n    /*                                       EVENT DEFINITIONS                                  */\n    /********************************************************************************************/\n\n    event AirlineRegistered(address airline);\n    event AirlineFunded(address airline);\n    event FlightRegistered(bytes32 flightKey);\n    event ProcessedFlightStatus(bytes32 flightKey, uint8 statusCode);\n    event PassengerInsured(bytes32 flightKey, address passenger, uint256 amount, uint256 payout);\n    event InsureeCredited(bytes32 flightKey, address passenger, uint256 amount);\n    event PayInsuree(address payoutAddress, uint256 amount);\n\n    /********************************************************************************************/\n    /*                                       FUNCTION MODIFIERS                                 */\n    /********************************************************************************************/\n\n    /**\n    * @dev Modifier that requires the \"operational\" boolean variable to be \"true\"\n    *      This is used on all state changing functions to pause the contract in\n    *      the event there is an issue that needs to be fixed\n    */\n    modifier requireIsOperational() {\n        require(operational, \"Contract is currently not operational\");\n        _;\n    }\n\n    /**\n    * @dev Modifier that requires the \"ContractOwner\" account to be the function caller\n    */\n    modifier requireContractOwner() {\n        require(msg.sender == contractOwner, \"Caller is not contract owner\");\n        _;\n    }\n\n    /**\n    * @dev Modifier that requires an Airline is not registered yet\n    */\n    modifier requireAirlineIsNotRegistered(address airline) {\n        require(!airlines[airline].sIsRegistered, \"Airline is already registered.\");\n        _;\n    }\n\n    /**\n    * @dev Modifier that requires an Airline is not funded yet\n    */\n    modifier requireAirlineIsNotFunded(address airline) {\n        require(!airlines[airline].sIsFunded, \"Airline is already funded.\");\n        _;\n    }\n\n    /**\n    * @dev Modifier that requires an Flight is not registered yet\n    */\n    modifier requireFlightIsNotRegistered(bytes32 flightKey) {\n        require(!flights[flightKey].sIsRegistered, \"Flight is already registered.\");\n        _;\n    }\n\n    /**\n    * @dev Modifier that requires an Airline to be registered\n    */\n    modifier requireIsAirlineRegistered(address airline) {\n        require(airlines[airline].sIsRegistered, \"Airline is not registered.\");\n        _;\n    }\n\n    /**\n    * @dev Modifier that requires an Airline to be funded\n    */\n    modifier requireIsAirlineFunded(address airline) {\n        require(airlines[airline].sIsFunded, \"Airline is not funded.\");\n        _;\n    }\n\n    modifier requireIsFlightRegistered(bytes32 flightKey) {\n        require(flights[flightKey].sIsRegistered, \"Flight is not registered\");\n        _;\n    }\n\n    /********************************************************************************************/\n    /*                                       UTILITY FUNCTIONS                                  */\n    /********************************************************************************************/\n\n    /**\n    * @dev Get operating status of contract\n    * @return A bool that is the current operating status\n    */\n    function isOperational() public view returns(bool) {\n        return operational;\n    }\n\n    /**\n    * @dev Sets contract operations on/off\n    * When operational mode is disabled, all write transactions except for this one will fail\n    */\n    function setOperatingStatus(bool mode) external requireContractOwner {\n        operational = mode;\n    }\n\n    /********************************************************************************************/\n    /*                                     SMART CONTRACT FUNCTIONS                             */\n    /********************************************************************************************/\n\n    /**\n    * @dev Check if airline is registered\n    * @return Airline Registered (true/false)\n    */\n    function isAirlineRegistered(address airline) public view requireIsOperational returns(bool) {\n        return airlines[airline].sIsRegistered;\n    }\n\n    /**\n    * @dev Check if airline is funded\n    * @return Airline Funded (true/false)\n    */\n    function isAirlineFunded(address airline) public view returns(bool) {\n        return airlines[airline].sIsFunded;\n    }\n\n    /**\n    * @dev Check if flight is registered\n    * @return Airline Registered (true/false)\n    */\n    function isFlightRegistered(bytes32 flightKey) public view returns(bool) {\n        return flights[flightKey].sIsRegistered;\n    }\n\n    function isFlightLanded(bytes32 flightKey) public view returns(bool) {\n        if (flights[flightKey].sStatusCode > 0) {\n            return true;\n        }\n        return false;\n    }\n\n    function isPassengerInsuredForFlight(bytes32 flightKey, address passenger) public view returns(bool) {\n        InsuranceClaim[] memory insuranceClaims = flightInsuranceClaims[flightKey];\n        for (uint256 i = 0; i < insuranceClaims.length; i++) {\n            if (insuranceClaims[i].sPassenger == passenger) {\n                return true;\n            }\n        }\n        return false;\n    }\n    /**\n    * @dev Add an airline to the registration queue\n    *      Can only be called from FlightSuretyApp contract\n    */\n    function registerAirline(\n        address newAirline,\n        address registeringAirline\n    )\n        external\n        requireIsOperational\n        requireAirlineIsNotRegistered(newAirline)\n        requireIsAirlineFunded(registeringAirline)\n    {\n        // Voting handled in FlightSuretyApp\n        airlines[newAirline] = Airline(true, false, 0);\n        registeredAirlineCount = registeredAirlineCount.add(1);\n        emit AirlineRegistered(newAirline);\n    }\n\n    /**\n    * @dev Initial funding for the insurance. Unless there are too many delayed flights\n    *      resulting in insurance payouts, the contract should be self-sustaining\n    */\n    function fundAirline(address airline, uint256 amount)\n        external\n        requireIsOperational\n        requireIsAirlineRegistered(airline)\n        requireAirlineIsNotFunded(airline)\n        returns(bool)\n    {\n        airlines[airline].sIsFunded = true;\n        airlines[airline].sFunds = airlines[airline].sFunds.add(amount);\n        fundedAirlineCount = fundedAirlineCount.add(1);\n        emit AirlineFunded(airline);\n        return airlines[airline].sIsFunded;\n    }\n\n    /**\n     * @dev Get the number of airlines already registered\n     * @return Number of registered airlines\n     */\n    function getRegisteredAirlineCount() public view requireIsOperational returns(uint256) {\n        return registeredAirlineCount;\n    }\n\n    /**\n     * @dev Get the number of airlines already funded\n     * @return Number of funded airlines\n     */\n    function getFundedAirlineCount() public view requireIsOperational returns(uint256) {\n        return fundedAirlineCount;\n    }\n\n    function registerFlight\n    (\n        bytes32 flightKey,\n        uint256 timestamp,\n        address airline,\n        string memory flightNumber,\n        string memory departureLocation,\n        string memory arrivalLocation\n    )\n        public\n        payable\n        requireIsOperational\n        requireIsAirlineFunded(airline)\n        requireFlightIsNotRegistered(flightKey)\n    {\n        flights[flightKey] = Flight(\n            true,\n            flightKey,\n            airline,\n            flightNumber,\n            0,\n            timestamp,\n            departureLocation,\n            arrivalLocation\n        );\n        registeredFlights.push(flightKey);\n        emit FlightRegistered(flightKey);\n    }\n\n    function getCountRegisteredFlights() public view requireIsOperational returns(uint256) {\n        return registeredFlights.length;\n    }\n\n    function processFlightStatus(address airline, string calldata flight, uint256 timestamp, uint8 statusCode) external requireIsOperational {\n        bytes32 flightKey = getFlightKey(airline, flight, timestamp);\n        require(!isFlightLanded(flightKey), \"Flight has already landed.\");\n        if (flights[flightKey].sStatusCode == 0) {\n            flights[flightKey].sStatusCode = statusCode;\n            if (statusCode == 20) {\n                creditInsurees(flightKey);\n            }\n        }\n        emit ProcessedFlightStatus(flightKey, statusCode);\n    }\n\n   /**\n    * @dev Buy insurance for a flight\n    */\n    function buyInsurance\n    (\n        bytes32 flightKey,\n        address passenger,\n        uint256 amount,\n        uint256 payout\n    )\n        external\n        payable\n        requireIsOperational\n    {\n        require(isFlightRegistered(flightKey), \"Flight is already registered\");\n        require(!isFlightLanded(flightKey), \"Flight has already landed\");\n\n        flightInsuranceClaims[flightKey].push(InsuranceClaim(\n            passenger,\n            amount,\n            payout,\n            false\n        ));\n        emit PassengerInsured(flightKey, passenger, amount, payout);\n    }\n\n    /**\n    *  @dev Credits payouts to insurees\n    */\n    function creditInsurees(bytes32 flightKey) internal requireIsOperational {\n        for (uint256 i = 0; i < flightInsuranceClaims[flightKey].length; i++) {\n            InsuranceClaim memory insuranceClaim = flightInsuranceClaims[flightKey][i];\n            insuranceClaim.sCredited = true;\n            uint256 amount = insuranceClaim.sPuchaseAmount.mul(insuranceClaim.sPayoutPercentage).div(100);\n            withdrawableFunds[insuranceClaim.sPassenger] = withdrawableFunds[insuranceClaim.sPassenger].add(amount);\n            emit InsureeCredited(flightKey, insuranceClaim.sPassenger, amount);\n        }\n    }\n\n    /**\n     *  @dev Transfers eligible payout funds to insuree\n    */\n    function pay(address payable payoutAddress) external payable requireIsOperational {\n        uint256 amount = withdrawableFunds[payoutAddress];\n        require(address(this).balance >= amount, \"Contract has insufficient funds.\");\n        require(amount > 0, \"There are no funds available for withdrawal\");\n        withdrawableFunds[payoutAddress] = 0;\n        address(uint160(address(payoutAddress))).transfer(amount);\n        emit PayInsuree(payoutAddress, amount);\n    }\n\n    function getFlightKey(address airline, string memory flight, uint256 timestamp) internal pure returns(bytes32) {\n        return keccak256(abi.encodePacked(airline, flight, timestamp));\n    }\n\n    /**\n    * @dev Fallback function for funding smart contract.\n    *\n    */\n    function() external payable {\n    }\n\n}\n\n",
  "sourcePath": "/Users/vimalkansal/udacity/udacity_FlightSurety/contracts/FlightSuretyData.sol",
  "compiler": {
    "name": "solc",
    "version": "0.5.17+commit.d19bba13.Emscripten.clang"
  },
  "schemaVersion": "3.0.11",
  "updatedAt": "2021-12-05T04:02:11.804Z",
  "devdoc": {
    "methods": {
      "buyInsurance(bytes32,address,uint256,uint256)": {
        "details": "Buy insurance for a flight"
      },
      "constructor": {
        "details": "Constructor     The deploying account becomes contractOwner"
      },
      "fundAirline(address,uint256)": {
        "details": "Initial funding for the insurance. Unless there are too many delayed flights     resulting in insurance payouts, the contract should be self-sustaining"
      },
      "getFundedAirlineCount()": {
        "details": "Get the number of airlines already funded",
        "return": "Number of funded airlines"
      },
      "getRegisteredAirlineCount()": {
        "details": "Get the number of airlines already registered",
        "return": "Number of registered airlines"
      },
      "isAirlineFunded(address)": {
        "details": "Check if airline is funded",
        "return": "Airline Funded (true/false)"
      },
      "isAirlineRegistered(address)": {
        "details": "Check if airline is registered",
        "return": "Airline Registered (true/false)"
      },
      "isFlightRegistered(bytes32)": {
        "details": "Check if flight is registered",
        "return": "Airline Registered (true/false)"
      },
      "isOperational()": {
        "details": "Get operating status of contract",
        "return": "A bool that is the current operating status"
      },
      "pay(address)": {
        "details": "Transfers eligible payout funds to insuree"
      },
      "registerAirline(address,address)": {
        "details": "Add an airline to the registration queue     Can only be called from FlightSuretyApp contract"
      },
      "setOperatingStatus(bool)": {
        "details": "Sets contract operations on/off When operational mode is disabled, all write transactions except for this one will fail"
      }
    }
  },
  "userdoc": {
    "methods": {}
  }
}