{
  "contractName": "FlightSuretyApp",
  "abi": [
    {
      "inputs": [
        {
          "internalType": "address payable",
          "name": "fSData",
          "type": "address"
        }
      ],
      "payable": false,
      "stateMutability": "nonpayable",
      "type": "constructor"
    },
    {
      "anonymous": false,
      "inputs": [
        {
          "indexed": false,
          "internalType": "address",
          "name": "airline",
          "type": "address"
        },
        {
          "indexed": false,
          "internalType": "string",
          "name": "flight",
          "type": "string"
        },
        {
          "indexed": false,
          "internalType": "uint256",
          "name": "timestamp",
          "type": "uint256"
        },
        {
          "indexed": false,
          "internalType": "uint8",
          "name": "status",
          "type": "uint8"
        }
      ],
      "name": "FlightStatusInfo",
      "type": "event"
    },
    {
      "anonymous": false,
      "inputs": [
        {
          "indexed": false,
          "internalType": "address",
          "name": "oracle",
          "type": "address"
        }
      ],
      "name": "OracleRegistered",
      "type": "event"
    },
    {
      "anonymous": false,
      "inputs": [
        {
          "indexed": false,
          "internalType": "address",
          "name": "airline",
          "type": "address"
        },
        {
          "indexed": false,
          "internalType": "string",
          "name": "flight",
          "type": "string"
        },
        {
          "indexed": false,
          "internalType": "uint256",
          "name": "timestamp",
          "type": "uint256"
        },
        {
          "indexed": false,
          "internalType": "uint8",
          "name": "status",
          "type": "uint8"
        }
      ],
      "name": "OracleReport",
      "type": "event"
    },
    {
      "anonymous": false,
      "inputs": [
        {
          "indexed": false,
          "internalType": "uint8",
          "name": "index",
          "type": "uint8"
        },
        {
          "indexed": false,
          "internalType": "address",
          "name": "airline",
          "type": "address"
        },
        {
          "indexed": false,
          "internalType": "string",
          "name": "flight",
          "type": "string"
        },
        {
          "indexed": false,
          "internalType": "uint256",
          "name": "timestamp",
          "type": "uint256"
        }
      ],
      "name": "OracleRequest",
      "type": "event"
    },
    {
      "payable": true,
      "stateMutability": "payable",
      "type": "fallback"
    },
    {
      "constant": true,
      "inputs": [],
      "name": "REGISTRATION_FEE",
      "outputs": [
        {
          "internalType": "uint256",
          "name": "",
          "type": "uint256"
        }
      ],
      "payable": false,
      "stateMutability": "view",
      "type": "function"
    },
    {
      "constant": true,
      "inputs": [
        {
          "internalType": "address",
          "name": "",
          "type": "address"
        },
        {
          "internalType": "uint256",
          "name": "",
          "type": "uint256"
        }
      ],
      "name": "pendingAirlines",
      "outputs": [
        {
          "internalType": "address",
          "name": "",
          "type": "address"
        }
      ],
      "payable": false,
      "stateMutability": "view",
      "type": "function"
    },
    {
      "constant": true,
      "inputs": [],
      "name": "isOperational",
      "outputs": [
        {
          "internalType": "bool",
          "name": "",
          "type": "bool"
        }
      ],
      "payable": false,
      "stateMutability": "view",
      "type": "function"
    },
    {
      "constant": false,
      "inputs": [
        {
          "internalType": "bool",
          "name": "mode",
          "type": "bool"
        }
      ],
      "name": "setOperatingStatus",
      "outputs": [],
      "payable": false,
      "stateMutability": "nonpayable",
      "type": "function"
    },
    {
      "constant": false,
      "inputs": [
        {
          "internalType": "address",
          "name": "airline",
          "type": "address"
        }
      ],
      "name": "registerAirline",
      "outputs": [
        {
          "internalType": "bool",
          "name": "success",
          "type": "bool"
        },
        {
          "internalType": "uint256",
          "name": "votes",
          "type": "uint256"
        },
        {
          "internalType": "uint256",
          "name": "registeredAirlineCount",
          "type": "uint256"
        }
      ],
      "payable": false,
      "stateMutability": "nonpayable",
      "type": "function"
    },
    {
      "constant": false,
      "inputs": [],
      "name": "fundAirline",
      "outputs": [
        {
          "internalType": "bool",
          "name": "",
          "type": "bool"
        }
      ],
      "payable": true,
      "stateMutability": "payable",
      "type": "function"
    },
    {
      "constant": false,
      "inputs": [
        {
          "internalType": "string",
          "name": "flightNumber",
          "type": "string"
        },
        {
          "internalType": "uint256",
          "name": "timestamp",
          "type": "uint256"
        },
        {
          "internalType": "string",
          "name": "departureLocation",
          "type": "string"
        },
        {
          "internalType": "string",
          "name": "arrivalLocation",
          "type": "string"
        }
      ],
      "name": "registerFlight",
      "outputs": [],
      "payable": false,
      "stateMutability": "nonpayable",
      "type": "function"
    },
    {
      "constant": false,
      "inputs": [
        {
          "internalType": "address",
          "name": "airline",
          "type": "address"
        },
        {
          "internalType": "string",
          "name": "flight",
          "type": "string"
        },
        {
          "internalType": "uint256",
          "name": "timestamp",
          "type": "uint256"
        },
        {
          "internalType": "bytes32",
          "name": "flightKey",
          "type": "bytes32"
        }
      ],
      "name": "fetchFlightStatus",
      "outputs": [],
      "payable": false,
      "stateMutability": "nonpayable",
      "type": "function"
    },
    {
      "constant": false,
      "inputs": [
        {
          "internalType": "bytes32",
          "name": "flightKey",
          "type": "bytes32"
        }
      ],
      "name": "buyInsurance",
      "outputs": [],
      "payable": true,
      "stateMutability": "payable",
      "type": "function"
    },
    {
      "constant": false,
      "inputs": [],
      "name": "pay",
      "outputs": [],
      "payable": false,
      "stateMutability": "nonpayable",
      "type": "function"
    },
    {
      "constant": false,
      "inputs": [],
      "name": "registerOracle",
      "outputs": [],
      "payable": true,
      "stateMutability": "payable",
      "type": "function"
    },
    {
      "constant": true,
      "inputs": [],
      "name": "getMyIndexes",
      "outputs": [
        {
          "internalType": "uint8[3]",
          "name": "",
          "type": "uint8[3]"
        }
      ],
      "payable": false,
      "stateMutability": "view",
      "type": "function"
    },
    {
      "constant": false,
      "inputs": [
        {
          "internalType": "uint8",
          "name": "index",
          "type": "uint8"
        },
        {
          "internalType": "address",
          "name": "airline",
          "type": "address"
        },
        {
          "internalType": "string",
          "name": "flight",
          "type": "string"
        },
        {
          "internalType": "uint256",
          "name": "timestamp",
          "type": "uint256"
        },
        {
          "internalType": "uint8",
          "name": "statusCode",
          "type": "uint8"
        }
      ],
      "name": "submitOracleResponse",
      "outputs": [],
      "payable": false,
      "stateMutability": "nonpayable",
      "type": "function"
    }
  ],
  "bytecode": "0x6080604052678ac7230489e80000600055670de0b6b3a76400006001556096600255600460035560026004556001600560146101000a81548160ff0219169083151502179055506000600760146101000a81548160ff021916908360ff16021790555034801561006e57600080fd5b506040516137323803806137328339818101604052602081101561009157600080fd5b810190808051906020019092919050505033600560006101000a81548173ffffffffffffffffffffffffffffffffffffffff021916908373ffffffffffffffffffffffffffffffffffffffff16021790555080600760006101000a81548173ffffffffffffffffffffffffffffffffffffffff021916908373ffffffffffffffffffffffffffffffffffffffff160217905550506135fe806101346000396000f3fe6080604052600436106100c25760003560e01c80639ed189271161007f578063c10f270011610059578063c10f27001461038e578063cbc03b4714610458578063cd905dff14610592578063d79b71a2146105c1576100c2565b80639ed189271461025a578063bdfd98771461027c578063be92747f146102f3576100c2565b8063110466ed146100c457806313480006146101015780631b9265b8146101bb578063339d2590146101d25780635f1cc0e6146101dc57806364b4f7511461022f575b005b3480156100d057600080fd5b506100ff600480360360208110156100e757600080fd5b810190808035151590602001909291905050506105ef565b005b34801561010d57600080fd5b506101b96004803603608081101561012457600080fd5b81019080803573ffffffffffffffffffffffffffffffffffffffff1690602001909291908035906020019064010000000081111561016157600080fd5b82018360208201111561017357600080fd5b8035906020019184600183028401116401000000008311171561019557600080fd5b909192939192939080359060200190929190803590602001909291905050506106cf565b005b3480156101c757600080fd5b506101d0610b06565b005b6101da610c26565b005b3480156101e857600080fd5b506101f1610daf565b6040518082600360200280838360005b8381101561021c578082015181840152602081019050610201565b5050505090500191505060405180910390f35b34801561023b57600080fd5b50610244610f22565b6040518082815260200191505060405180910390f35b610262610f2e565b604051808215151515815260200191505060405180910390f35b34801561028857600080fd5b506102cb6004803603602081101561029f57600080fd5b81019080803573ffffffffffffffffffffffffffffffffffffffff169060200190929190505050611402565b6040518084151515158152602001838152602001828152602001935050505060405180910390f35b3480156102ff57600080fd5b5061034c6004803603604081101561031657600080fd5b81019080803573ffffffffffffffffffffffffffffffffffffffff16906020019092919080359060200190929190505050611f3a565b604051808273ffffffffffffffffffffffffffffffffffffffff1673ffffffffffffffffffffffffffffffffffffffff16815260200191505060405180910390f35b34801561039a57600080fd5b50610456600480360360a08110156103b157600080fd5b81019080803560ff169060200190929190803573ffffffffffffffffffffffffffffffffffffffff169060200190929190803590602001906401000000008111156103fb57600080fd5b82018360208201111561040d57600080fd5b8035906020019184600183028401116401000000008311171561042f57600080fd5b909192939192939080359060200190929190803560ff169060200190929190505050611f85565b005b34801561046457600080fd5b506105906004803603608081101561047b57600080fd5b810190808035906020019064010000000081111561049857600080fd5b8201836020820111156104aa57600080fd5b803590602001918460018302840111640100000000831117156104cc57600080fd5b909192939192939080359060200190929190803590602001906401000000008111156104f757600080fd5b82018360208201111561050957600080fd5b8035906020019184600183028401116401000000008311171561052b57600080fd5b90919293919293908035906020019064010000000081111561054c57600080fd5b82018360208201111561055e57600080fd5b8035906020019184600183028401116401000000008311171561058057600080fd5b90919293919293905050506124a6565b005b34801561059e57600080fd5b506105a761281b565b604051808215151515815260200191505060405180910390f35b6105ed600480360360208110156105d757600080fd5b81019080803590602001909291905050506128f5565b005b600560009054906101000a900473ffffffffffffffffffffffffffffffffffffffff1673ffffffffffffffffffffffffffffffffffffffff163373ffffffffffffffffffffffffffffffffffffffff16146106b2576040517f08c379a000000000000000000000000000000000000000000000000000000000815260040180806020018281038252601c8152602001807f43616c6c6572206973206e6f7420636f6e7472616374206f776e65720000000081525060200191505060405180910390fd5b80600560146101000a81548160ff02191690831515021790555050565b80600760009054906101000a900473ffffffffffffffffffffffffffffffffffffffff1673ffffffffffffffffffffffffffffffffffffffff166358ac36a3826040518263ffffffff1660e01b81526004018082815260200191505060206040518083038186803b15801561074357600080fd5b505afa158015610757573d6000803e3d6000fd5b505050506040513d602081101561076d57600080fd5b81019080805190602001909291905050506107f0576040517f08c379a00000000000000000000000000000000000000000000000000000000081526004018080602001828103825260198152602001807f466c69676874206973206e6f7420726567697374657265642e0000000000000081525060200191505060405180910390fd5b81600760009054906101000a900473ffffffffffffffffffffffffffffffffffffffff1673ffffffffffffffffffffffffffffffffffffffff166374e514e4826040518263ffffffff1660e01b81526004018082815260200191505060206040518083038186803b15801561086457600080fd5b505afa158015610878573d6000803e3d6000fd5b505050506040513d602081101561088e57600080fd5b810190808051906020019092919050505015610912576040517f08c379a00000000000000000000000000000000000000000000000000000000081526004018080602001828103825260198152602001807f466c696768742068617320616c7265616479206c616e6465640000000000000081525060200191505060405180910390fd5b600061091d33612e75565b905060008189898989604051602001808660ff1660ff1660f81b81526001018573ffffffffffffffffffffffffffffffffffffffff1673ffffffffffffffffffffffffffffffffffffffff1660601b8152601401848480828437808301925050508281526020019550505050505060405160208183030381529060405280519060200120905060405180604001604052803373ffffffffffffffffffffffffffffffffffffffff168152602001600115158152506009600083815260200190815260200160002060008201518160000160006101000a81548173ffffffffffffffffffffffffffffffffffffffff021916908373ffffffffffffffffffffffffffffffffffffffff16021790555060208201518160000160146101000a81548160ff0219169083151502179055509050507f3ed01f2c3fc24c6b329d931e35b03e390d23497d22b3f90e15b600343e93df11828a8a8a8a604051808660ff1660ff1681526020018573ffffffffffffffffffffffffffffffffffffffff1673ffffffffffffffffffffffffffffffffffffffff168152602001806020018381526020018281038252858582818152602001925080828437600081840152601f19601f820116905080830192505050965050505050505060405180910390a1505050505050505050565b600560149054906101000a900460ff16610b6b576040517f08c379a000000000000000000000000000000000000000000000000000000000815260040180806020018281038252602581526020018061353a6025913960400191505060405180910390fd5b600760009054906101000a900473ffffffffffffffffffffffffffffffffffffffff1673ffffffffffffffffffffffffffffffffffffffff16630c11dedd336040518263ffffffff1660e01b8152600401808273ffffffffffffffffffffffffffffffffffffffff1673ffffffffffffffffffffffffffffffffffffffff168152602001915050600060405180830381600087803b158015610c0c57600080fd5b505af1158015610c20573d6000803e3d6000fd5b50505050565b670de0b6b3a7640000341015610ca4576040517f08c379a000000000000000000000000000000000000000000000000000000000815260040180806020018281038252601c8152602001807f526567697374726174696f6e206665652069732072657175697265640000000081525060200191505060405180910390fd5b610cac6133e3565b610cb533612f65565b9050604051806040016040528060011515815260200182815250600860003373ffffffffffffffffffffffffffffffffffffffff1673ffffffffffffffffffffffffffffffffffffffff16815260200190815260200160002060008201518160000160006101000a81548160ff021916908315150217905550602082015181600101906003610d45929190613405565b509050507fd9d9fdcc9f936c76b5aafe54fc3db5dcec0c6583c9ccc4abe91d17575c5145a533604051808273ffffffffffffffffffffffffffffffffffffffff1673ffffffffffffffffffffffffffffffffffffffff16815260200191505060405180910390a150565b610db76133e3565b600860003373ffffffffffffffffffffffffffffffffffffffff1673ffffffffffffffffffffffffffffffffffffffff16815260200190815260200160002060000160009054906101000a900460ff16610e79576040517f08c379a000000000000000000000000000000000000000000000000000000000815260040180806020018281038252601b8152602001807f4e6f74207265676973746572656420617320616e206f7261636c65000000000081525060200191505060405180910390fd5b600860003373ffffffffffffffffffffffffffffffffffffffff1673ffffffffffffffffffffffffffffffffffffffff168152602001908152602001600020600101600380602002604051908101604052809291908260038015610f18576020028201916000905b82829054906101000a900460ff1660ff1681526020019060010190602082600001049283019260010382029150808411610ee15790505b5050505050905090565b670de0b6b3a764000081565b6000600560149054906101000a900460ff16610f95576040517f08c379a000000000000000000000000000000000000000000000000000000000815260040180806020018281038252602581526020018061353a6025913960400191505060405180910390fd5b33600760009054906101000a900473ffffffffffffffffffffffffffffffffffffffff1673ffffffffffffffffffffffffffffffffffffffff1663010c5c97826040518263ffffffff1660e01b8152600401808273ffffffffffffffffffffffffffffffffffffffff1673ffffffffffffffffffffffffffffffffffffffff16815260200191505060206040518083038186803b15801561103557600080fd5b505afa158015611049573d6000803e3d6000fd5b505050506040513d602081101561105f57600080fd5b81019080805190602001909291905050506110e2576040517f08c379a000000000000000000000000000000000000000000000000000000000815260040180806020018281038252601a8152602001807f4169726c696e65206973206e6f7420726567697374657265642e00000000000081525060200191505060405180910390fd5b33600760009054906101000a900473ffffffffffffffffffffffffffffffffffffffff1673ffffffffffffffffffffffffffffffffffffffff1663f53b6d65826040518263ffffffff1660e01b8152600401808273ffffffffffffffffffffffffffffffffffffffff1673ffffffffffffffffffffffffffffffffffffffff16815260200191505060206040518083038186803b15801561118257600080fd5b505afa158015611196573d6000803e3d6000fd5b505050506040513d60208110156111ac57600080fd5b810190808051906020019092919050505015611230576040517f08c379a000000000000000000000000000000000000000000000000000000000815260040180806020018281038252601a8152602001807f4169726c696e6520697320616c72656164792066756e6465642e00000000000081525060200191505060405180910390fd5b600054803410156112a9576040517f08c379a00000000000000000000000000000000000000000000000000000000081526004018080602001828103825260138152602001807f496e73756666696369656e742046756e64732e0000000000000000000000000081525060200191505060405180910390fd5b600760009054906101000a900473ffffffffffffffffffffffffffffffffffffffff1673ffffffffffffffffffffffffffffffffffffffff166108fc6000549081150290604051600060405180830381858888f19350505050158015611313573d6000803e3d6000fd5b50600760009054906101000a900473ffffffffffffffffffffffffffffffffffffffff1673ffffffffffffffffffffffffffffffffffffffff1663f1a81e72336000546040518363ffffffff1660e01b8152600401808373ffffffffffffffffffffffffffffffffffffffff1673ffffffffffffffffffffffffffffffffffffffff16815260200182815260200192505050602060405180830381600087803b1580156113bf57600080fd5b505af11580156113d3573d6000803e3d6000fd5b505050506040513d60208110156113e957600080fd5b8101908080519060200190929190505050935050505090565b6000806000600560149054906101000a900460ff1661146c576040517f08c379a000000000000000000000000000000000000000000000000000000000815260040180806020018281038252602581526020018061353a6025913960400191505060405180910390fd5b83600760009054906101000a900473ffffffffffffffffffffffffffffffffffffffff1673ffffffffffffffffffffffffffffffffffffffff1663010c5c97826040518263ffffffff1660e01b8152600401808273ffffffffffffffffffffffffffffffffffffffff1673ffffffffffffffffffffffffffffffffffffffff16815260200191505060206040518083038186803b15801561150c57600080fd5b505afa158015611520573d6000803e3d6000fd5b505050506040513d602081101561153657600080fd5b8101908080519060200190929190505050156115ba576040517f08c379a000000000000000000000000000000000000000000000000000000000815260040180806020018281038252601e8152602001807f4169726c696e6520697320616c726561647920726567697374657265642e000081525060200191505060405180910390fd5b33600760009054906101000a900473ffffffffffffffffffffffffffffffffffffffff1673ffffffffffffffffffffffffffffffffffffffff1663f53b6d65826040518263ffffffff1660e01b8152600401808273ffffffffffffffffffffffffffffffffffffffff1673ffffffffffffffffffffffffffffffffffffffff16815260200191505060206040518083038186803b15801561165a57600080fd5b505afa15801561166e573d6000803e3d6000fd5b505050506040513d602081101561168457600080fd5b8101908080519060200190929190505050611707576040517f08c379a00000000000000000000000000000000000000000000000000000000081526004018080602001828103825260168152602001807f4169726c696e65206973206e6f742066756e6465642e0000000000000000000081525060200191505060405180910390fd5b600354600760009054906101000a900473ffffffffffffffffffffffffffffffffffffffff1673ffffffffffffffffffffffffffffffffffffffff16634e268e3c6040518163ffffffff1660e01b815260040160206040518083038186803b15801561177257600080fd5b505afa158015611786573d6000803e3d6000fd5b505050506040513d602081101561179c57600080fd5b81019080805190602001909291905050501161195357600760009054906101000a900473ffffffffffffffffffffffffffffffffffffffff1673ffffffffffffffffffffffffffffffffffffffff1663c7ba501887336040518363ffffffff1660e01b8152600401808373ffffffffffffffffffffffffffffffffffffffff1673ffffffffffffffffffffffffffffffffffffffff1681526020018273ffffffffffffffffffffffffffffffffffffffff1673ffffffffffffffffffffffffffffffffffffffff16815260200192505050600060405180830381600087803b15801561188757600080fd5b505af115801561189b573d6000803e3d6000fd5b50505050846000600760009054906101000a900473ffffffffffffffffffffffffffffffffffffffff1673ffffffffffffffffffffffffffffffffffffffff16634e268e3c6040518163ffffffff1660e01b815260040160206040518083038186803b15801561190a57600080fd5b505afa15801561191e573d6000803e3d6000fd5b505050506040513d602081101561193457600080fd5b8101908080519060200190929190505050819150945094509450611f31565b600080905060008090505b600660008973ffffffffffffffffffffffffffffffffffffffff1673ffffffffffffffffffffffffffffffffffffffff16815260200190815260200160002080549050811015611a66573373ffffffffffffffffffffffffffffffffffffffff16600660008a73ffffffffffffffffffffffffffffffffffffffff1673ffffffffffffffffffffffffffffffffffffffff1681526020019081526020016000208281548110611a0957fe5b9060005260206000200160009054906101000a900473ffffffffffffffffffffffffffffffffffffffff1673ffffffffffffffffffffffffffffffffffffffff161415611a595760019150611a66565b808060010191505061195e565b508015611abe576040517f08c379a000000000000000000000000000000000000000000000000000000000815260040180806020018281038252603b8152602001806134ff603b913960400191505060405180910390fd5b600660008873ffffffffffffffffffffffffffffffffffffffff1673ffffffffffffffffffffffffffffffffffffffff1681526020019081526020016000203390806001815401808255809150509060018203906000526020600020016000909192909190916101000a81548173ffffffffffffffffffffffffffffffffffffffff021916908373ffffffffffffffffffffffffffffffffffffffff16021790555050611c18600454600760009054906101000a900473ffffffffffffffffffffffffffffffffffffffff1673ffffffffffffffffffffffffffffffffffffffff16634e268e3c6040518163ffffffff1660e01b815260040160206040518083038186803b158015611bcf57600080fd5b505afa158015611be3573d6000803e3d6000fd5b505050506040513d6020811015611bf957600080fd5b81019080805190602001909291905050506130f190919063ffffffff16565b600660008973ffffffffffffffffffffffffffffffffffffffff1673ffffffffffffffffffffffffffffffffffffffff1681526020019081526020016000208054905010611e4157600760009054906101000a900473ffffffffffffffffffffffffffffffffffffffff1673ffffffffffffffffffffffffffffffffffffffff1663c7ba501888336040518363ffffffff1660e01b8152600401808373ffffffffffffffffffffffffffffffffffffffff1673ffffffffffffffffffffffffffffffffffffffff1681526020018273ffffffffffffffffffffffffffffffffffffffff1673ffffffffffffffffffffffffffffffffffffffff16815260200192505050600060405180830381600087803b158015611d3557600080fd5b505af1158015611d49573d6000803e3d6000fd5b505050506001600660008973ffffffffffffffffffffffffffffffffffffffff1673ffffffffffffffffffffffffffffffffffffffff16815260200190815260200160002080549050600760009054906101000a900473ffffffffffffffffffffffffffffffffffffffff1673ffffffffffffffffffffffffffffffffffffffff16634e268e3c6040518163ffffffff1660e01b815260040160206040518083038186803b158015611dfa57600080fd5b505afa158015611e0e573d6000803e3d6000fd5b505050506040513d6020811015611e2457600080fd5b810190808051906020019092919050505095509550955050611f31565b6000600660008973ffffffffffffffffffffffffffffffffffffffff1673ffffffffffffffffffffffffffffffffffffffff16815260200190815260200160002080549050600760009054906101000a900473ffffffffffffffffffffffffffffffffffffffff1673ffffffffffffffffffffffffffffffffffffffff16634e268e3c6040518163ffffffff1660e01b815260040160206040518083038186803b158015611eee57600080fd5b505afa158015611f02573d6000803e3d6000fd5b505050506040513d6020811015611f1857600080fd5b8101908080519060200190929190505050955095509550505b50509193909250565b60066020528160005260406000208181548110611f5357fe5b906000526020600020016000915091509054906101000a900473ffffffffffffffffffffffffffffffffffffffff1681565b8560ff16600860003373ffffffffffffffffffffffffffffffffffffffff1673ffffffffffffffffffffffffffffffffffffffff168152602001908152602001600020600101600060038110611fd757fe5b602091828204019190069054906101000a900460ff1660ff16148061206457508560ff16600860003373ffffffffffffffffffffffffffffffffffffffff1673ffffffffffffffffffffffffffffffffffffffff16815260200190815260200160002060010160016003811061204957fe5b602091828204019190069054906101000a900460ff1660ff16145b806120d757508560ff16600860003373ffffffffffffffffffffffffffffffffffffffff1673ffffffffffffffffffffffffffffffffffffffff1681526020019081526020016000206001016002600381106120bc57fe5b602091828204019190069054906101000a900460ff1660ff16145b61212c576040517f08c379a00000000000000000000000000000000000000000000000000000000081526004018080602001828103825260238152602001806135a76023913960400191505060405180910390fd5b60008686868686604051602001808660ff1660ff1660f81b81526001018573ffffffffffffffffffffffffffffffffffffffff1673ffffffffffffffffffffffffffffffffffffffff1660601b815260140184848082843780830192505050828152602001955050505050506040516020818303038152906040528051906020012090506009600082815260200190815260200160002060000160149054906101000a900460ff16612229576040517f08c379a000000000000000000000000000000000000000000000000000000000815260040180806020018281038252602f8152602001806134d0602f913960400191505060405180910390fd5b6009600082815260200190815260200160002060010160008360ff1660ff1681526020019081526020016000203390806001815401808255809150509060018203906000526020600020016000909192909190916101000a81548173ffffffffffffffffffffffffffffffffffffffff021916908373ffffffffffffffffffffffffffffffffffffffff160217905550507f43c853095c2752648493c88b4baac4d580d2594ffb00c6f1d4242d844514f7838686868686604051808673ffffffffffffffffffffffffffffffffffffffff1673ffffffffffffffffffffffffffffffffffffffff168152602001806020018481526020018360ff1660ff1681526020018281038252868682818152602001925080828437600081840152601f19601f820116905080830192505050965050505050505060405180910390a160036009600083815260200190815260200160002060010160008460ff1660ff168152602001908152602001600020805490501061249d577fe23f5229de535c091e3b7bec2665f5d698192d3b31393066e8987b7a05076b6c8686868686604051808673ffffffffffffffffffffffffffffffffffffffff1673ffffffffffffffffffffffffffffffffffffffff168152602001806020018481526020018360ff1660ff1681526020018281038252868682818152602001925080828437600081840152601f19601f820116905080830192505050965050505050505060405180910390a161249c8686868080601f016020809104026020016040519081016040528093929190818152602001838380828437600081840152601f19601f820116905080830192505050505050508585613180565b5b50505050505050565b600560149054906101000a900460ff1661250b576040517f08c379a000000000000000000000000000000000000000000000000000000000815260040180806020018281038252602581526020018061353a6025913960400191505060405180910390fd5b33600760009054906101000a900473ffffffffffffffffffffffffffffffffffffffff1673ffffffffffffffffffffffffffffffffffffffff1663f53b6d65826040518263ffffffff1660e01b8152600401808273ffffffffffffffffffffffffffffffffffffffff1673ffffffffffffffffffffffffffffffffffffffff16815260200191505060206040518083038186803b1580156125ab57600080fd5b505afa1580156125bf573d6000803e3d6000fd5b505050506040513d60208110156125d557600080fd5b8101908080519060200190929190505050612658576040517f08c379a00000000000000000000000000000000000000000000000000000000081526004018080602001828103825260168152602001807f4169726c696e65206973206e6f742066756e6465642e0000000000000000000081525060200191505060405180910390fd5b60006126a9338a8a8080601f016020809104026020016040519081016040528093929190818152602001838380828437600081840152601f19601f8201169050808301925050505050505089613327565b9050600760009054906101000a900473ffffffffffffffffffffffffffffffffffffffff1673ffffffffffffffffffffffffffffffffffffffff16638a351c088289338d8d8c8c8c8c6040518a63ffffffff1660e01b8152600401808a81526020018981526020018873ffffffffffffffffffffffffffffffffffffffff1673ffffffffffffffffffffffffffffffffffffffff16815260200180602001806020018060200184810384528a8a82818152602001925080828437600081840152601f19601f8201169050808301925050508481038352888882818152602001925080828437600081840152601f19601f8201169050808301925050508481038252868682818152602001925080828437600081840152601f19601f8201169050808301925050509c50505050505050505050505050600060405180830381600087803b1580156127f857600080fd5b505af115801561280c573d6000803e3d6000fd5b50505050505050505050505050565b6000600560009054906101000a900473ffffffffffffffffffffffffffffffffffffffff1673ffffffffffffffffffffffffffffffffffffffff163373ffffffffffffffffffffffffffffffffffffffff16146128e0576040517f08c379a000000000000000000000000000000000000000000000000000000000815260040180806020018281038252601c8152602001807f43616c6c6572206973206e6f7420636f6e7472616374206f776e65720000000081525060200191505060405180910390fd5b600560149054906101000a900460ff16905090565b600560149054906101000a900460ff1661295a576040517f08c379a000000000000000000000000000000000000000000000000000000000815260040180806020018281038252602581526020018061353a6025913960400191505060405180910390fd5b80600760009054906101000a900473ffffffffffffffffffffffffffffffffffffffff1673ffffffffffffffffffffffffffffffffffffffff166358ac36a3826040518263ffffffff1660e01b81526004018082815260200191505060206040518083038186803b1580156129ce57600080fd5b505afa1580156129e2573d6000803e3d6000fd5b505050506040513d60208110156129f857600080fd5b8101908080519060200190929190505050612a7b576040517f08c379a00000000000000000000000000000000000000000000000000000000081526004018080602001828103825260198152602001807f466c69676874206973206e6f7420726567697374657265642e0000000000000081525060200191505060405180910390fd5b81600760009054906101000a900473ffffffffffffffffffffffffffffffffffffffff1673ffffffffffffffffffffffffffffffffffffffff166374e514e4826040518263ffffffff1660e01b81526004018082815260200191505060206040518083038186803b158015612aef57600080fd5b505afa158015612b03573d6000803e3d6000fd5b505050506040513d6020811015612b1957600080fd5b810190808051906020019092919050505015612b9d576040517f08c379a00000000000000000000000000000000000000000000000000000000081526004018080602001828103825260198152602001807f466c696768742068617320616c7265616479206c616e6465640000000000000081525060200191505060405180910390fd5b8233600760009054906101000a900473ffffffffffffffffffffffffffffffffffffffff1673ffffffffffffffffffffffffffffffffffffffff166342bd3d9383836040518363ffffffff1660e01b8152600401808381526020018273ffffffffffffffffffffffffffffffffffffffff1673ffffffffffffffffffffffffffffffffffffffff1681526020019250505060206040518083038186803b158015612c4657600080fd5b505afa158015612c5a573d6000803e3d6000fd5b505050506040513d6020811015612c7057600080fd5b810190808051906020019092919050505015612cd7576040517f08c379a000000000000000000000000000000000000000000000000000000000815260040180806020018281038252602781526020018061355f6027913960400191505060405180910390fd5b600154341115612d32576040517f08c379a00000000000000000000000000000000000000000000000000000000081526004018080602001828103825260218152602001806135866021913960400191505060405180910390fd5b600760009054906101000a900473ffffffffffffffffffffffffffffffffffffffff1673ffffffffffffffffffffffffffffffffffffffff166108fc349081150290604051600060405180830381858888f19350505050158015612d9a573d6000803e3d6000fd5b50600760009054906101000a900473ffffffffffffffffffffffffffffffffffffffff1673ffffffffffffffffffffffffffffffffffffffff16631c5bbc308633346002546040518563ffffffff1660e01b8152600401808581526020018473ffffffffffffffffffffffffffffffffffffffff1673ffffffffffffffffffffffffffffffffffffffff168152602001838152602001828152602001945050505050600060405180830381600087803b158015612e5657600080fd5b505af1158015612e6a573d6000803e3d6000fd5b505050505050505050565b600080600a905060008160ff166007601481819054906101000a900460ff168092919060010191906101000a81548160ff021916908360ff16021790555060ff1643034085604051602001808381526020018273ffffffffffffffffffffffffffffffffffffffff1673ffffffffffffffffffffffffffffffffffffffff1660601b8152601401925050506040516020818303038152906040528051906020012060001c81612f2057fe5b06905060fa600760149054906101000a900460ff1660ff161115612f5b576000600760146101000a81548160ff021916908360ff1602179055505b8092505050919050565b612f6d6133e3565b612f756133e3565b612f7e83612e75565b81600060038110612f8b57fe5b602002019060ff16908160ff168152505080600060038110612fa957fe5b602002015181600160038110612fbb57fe5b602002019060ff16908160ff16815250505b80600060038110612fda57fe5b602002015160ff1681600160038110612fef57fe5b602002015160ff1614156130295761300683612e75565b8160016003811061301357fe5b602002019060ff16908160ff1681525050612fcd565b8060016003811061303657fe5b60200201518160026003811061304857fe5b602002019060ff16908160ff16815250505b8060006003811061306757fe5b602002015160ff168160026003811061307c57fe5b602002015160ff1614806130b757508060016003811061309857fe5b602002015160ff16816002600381106130ad57fe5b602002015160ff16145b156130e8576130c583612e75565b816002600381106130d257fe5b602002019060ff16908160ff168152505061305a565b80915050919050565b6000808211613168576040517f08c379a000000000000000000000000000000000000000000000000000000000815260040180806020018281038252601a8152602001807f536166654d6174683a206469766973696f6e206279207a65726f00000000000081525060200191505060405180910390fd5b600082848161317357fe5b0490508091505092915050565b600560149054906101000a900460ff166131e5576040517f08c379a000000000000000000000000000000000000000000000000000000000815260040180806020018281038252602581526020018061353a6025913960400191505060405180910390fd5b600760009054906101000a900473ffffffffffffffffffffffffffffffffffffffff1673ffffffffffffffffffffffffffffffffffffffff1663e7bdde3b858585856040518563ffffffff1660e01b8152600401808573ffffffffffffffffffffffffffffffffffffffff1673ffffffffffffffffffffffffffffffffffffffff168152602001806020018481526020018360ff1660ff168152602001828103825285818151815260200191508051906020019080838360005b838110156132ba57808201518184015260208101905061329f565b50505050905090810190601f1680156132e75780820380516001836020036101000a031916815260200191505b5095505050505050600060405180830381600087803b15801561330957600080fd5b505af115801561331d573d6000803e3d6000fd5b5050505050505050565b6000838383604051602001808473ffffffffffffffffffffffffffffffffffffffff1673ffffffffffffffffffffffffffffffffffffffff1660601b815260140183805190602001908083835b602083106133975780518252602082019150602081019050602083039250613374565b6001836020036101000a03801982511681845116808217855250505050505090500182815260200193505050506040516020818303038152906040528051906020012090509392505050565b6040518060600160405280600390602082028038833980820191505090505090565b826003601f0160209004810192821561348e5791602002820160005b8382111561345f57835183826101000a81548160ff021916908360ff1602179055509260200192600101602081600001049283019260010302613421565b801561348c5782816101000a81549060ff021916905560010160208160000104928301926001030261345f565b505b50905061349b919061349f565b5090565b6134cc91905b808211156134c857600081816101000a81549060ff0219169055506001016134a5565b5090565b9056fe466c69676874206f722074696d657374616d7020646f206e6f74206d61746368206f7261636c6520726571756573744475706c696361746520766f74652c20796f752063616e6e6f7420766f746520666f72207468652073616d65206169726c696e652074776963652e436f6e74726163742069732063757272656e746c79206e6f74206f7065726174696f6e616c50617373656e67657220697320616c726561647920696e737572656420666f7220666c6967687456616c75652065786365656473206d617820696e737572616e636520706c616e2e496e64657820646f6573206e6f74206d61746368206f7261636c652072657175657374a265627a7a723158206965659eae9581f3396228f656a9290fcfdbeca1a0a51ce703a8480f6eca103264736f6c63430005110032",
  "source": "pragma solidity ^0.5.10;\n\nimport \"../node_modules/openzeppelin-solidity/contracts/math/SafeMath.sol\";\n\n/************************************************** */\n/* FlightSurety Smart Contract                      */\n/************************************************** */\ncontract FlightSuretyApp {\n    using SafeMath for uint256;\n\n    /********************************************************************************************/\n    /*                                       DATA VARIABLES                                     */\n    /********************************************************************************************/\n\n    // Flight status codees\n    uint8 private constant STATUS_CODE_UNKNOWN = 0;\n    uint8 private constant STATUS_CODE_ON_TIME = 10;\n    uint8 private constant STATUS_CODE_LATE_AIRLINE = 20; // This is when payment process is triggered\n    uint8 private constant STATUS_CODE_LATE_WEATHER = 30;\n    uint8 private constant STATUS_CODE_LATE_TECHNICAL = 40;\n    uint8 private constant STATUS_CODE_LATE_OTHER = 50;\n\n    // Insurace Constants\n    uint256 AIRLINE_REGISTRATION_FEE = 10 ether;\n    uint256 MAX_INSURANCE_PLAN = 1 ether;\n    uint256 INSURANCE_PAYOUT = 150; // Must divide by 100 to get percentage payout\n\n    // Airline Registration Helpers\n    uint256 AIRLINE_VOTING_THRESHOLD = 4;\n    uint256 AIRLINE_REGISTRATION_REQUIRED_VOTES = 2;\n\n    // Account used to deploy contract\n    address private contractOwner;\n\n    // Contract Operational\n    bool private operational = true;\n\n    // Airlines\n    struct PendingAirline {\n        bool isRegistered;\n        bool isFunded;\n    }\n\n    mapping(address => address[]) public pendingAirlines;\n\n    FlightSuretyData flightSuretyData;\n\n    /********************************************************************************************/\n    /*                                       CONSTRUCTOR                                        */\n    /********************************************************************************************/\n\n    /**\n    * @dev Contract constructor\n    *\n    */\n    constructor(address payable fSData) public {\n        contractOwner = msg.sender;\n        flightSuretyData = FlightSuretyData(fSData);\n    }\n\n    /********************************************************************************************/\n    /*                                       FUNCTION MODIFIERS                                 */\n    /********************************************************************************************/\n\n    /**\n    * @dev Modifier that requires the \"operational\" boolean variable to be \"true\"\n    *      This is used on all state changing functions to pause the contract in\n    *      the event there is an issue that needs to be fixed\n    */\n    modifier requireIsOperational() {\n        require(operational, \"Contract is currently not operational\");\n        _;\n    }\n\n    /**\n    * @dev Modifier that requires the \"ContractOwner\" account to be the function caller\n    */\n    modifier requireContractOwner() {\n        require(msg.sender == contractOwner, \"Caller is not contract owner\");\n        _;\n    }\n\n    /**\n    * @dev Modifier that requires an Airline is not registered yet\n    */\n    modifier requireAirlineIsNotRegistered(address airline) {\n        require(!flightSuretyData.isAirlineRegistered(airline), \"Airline is already registered.\");\n        _;\n    }\n\n    /**\n    * @dev Modifier that requires an Airline is not funded yet\n    */\n    modifier requireAirlineIsNotFunded(address airline) {\n        require(!flightSuretyData.isAirlineFunded(airline), \"Airline is already funded.\");\n        _;\n    }\n\n    /**\n    * @dev Modifier that requires an Flight is not registered yet\n    */\n    modifier requireFlightIsNotRegistered(bytes32 flightKey) {\n        require(!flightSuretyData.isFlightRegistered(flightKey), \"Flight is already registered.\");\n        _;\n    }\n\n\n    /**\n    * @dev Modifier that requires an Airline to be registered\n    */\n    modifier requireIsAirlineRegistered(address airline) {\n        require(flightSuretyData.isAirlineRegistered(airline), \"Airline is not registered.\");\n        _;\n    }\n\n    /**\n    * @dev Modifier that requires an Airline to be funded\n    */\n    modifier requireIsAirlineFunded(address airline) {\n        require(flightSuretyData.isAirlineFunded(airline), \"Airline is not funded.\");\n        _;\n    }\n\n    /**\n     * @dev Modifier that requires sufficient funding to fund an airline\n     */\n    modifier requireSufficientFunding(uint256 amount) {\n        require(msg.value >= amount, \"Insufficient Funds.\");\n        _;\n    }\n\n    /**\n     * @dev Modifier that returns change after airline is funded\n     */\n    modifier calculateRefund() {\n        _;\n        uint refund = msg.value - AIRLINE_REGISTRATION_FEE;\n        msg.sender.transfer(refund);\n    }\n\n    modifier requireFlightIsRegistered(bytes32 flightKey) {\n        require(flightSuretyData.isFlightRegistered(flightKey), \"Flight is not registered.\");\n        _;\n    }\n\n    modifier requireFlightIsNotLanded(bytes32 flightKey) {\n        require(!flightSuretyData.isFlightLanded(flightKey), \"Flight has already landed\");\n        _;\n    }\n\n    modifier requirePassengerNotInsuredForFlight(bytes32 flightKey, address passenger) {\n        require(!flightSuretyData.isPassengerInsuredForFlight(flightKey, passenger), \"Passenger is already insured for flight\");\n        _;\n    }\n\n    modifier requireLessThanMaxInsurance() {\n        require(msg.value <= MAX_INSURANCE_PLAN, \"Value exceeds max insurance plan.\");\n        _;\n    }\n\n    /********************************************************************************************/\n    /*                                       UTILITY FUNCTIONS                                  */\n    /********************************************************************************************/\n\n    /**\n     * @dev Check if the contract is operational\n     */\n    function isOperational() public view requireContractOwner returns(bool) {\n        return operational;\n    }\n\n    /**\n    * @dev Sets contract operations on/off\n    * When operational mode is disabled, all write transactions except for this one will fail\n    */\n    function setOperatingStatus(bool mode) external requireContractOwner {\n        operational = mode;\n    }\n\n    /********************************************************************************************/\n    /*                                     SMART CONTRACT FUNCTIONS                             */\n    /********************************************************************************************/\n\n   /**\n    * @dev Add an airline to the registration queue\n    *\n    * @return Success/Failure, Votes cast for airline, current member count\n    */\n    function registerAirline(address airline)\n        external\n        requireIsOperational\n        requireAirlineIsNotRegistered(airline) // Airline is not registered yet\n        requireIsAirlineFunded(msg.sender) // Voter is a funded airline\n        returns(bool success, uint256 votes, uint256 registeredAirlineCount)\n    {\n        // If less than required minimum airlines for voting process\n        if (flightSuretyData.getRegisteredAirlineCount() <= AIRLINE_VOTING_THRESHOLD) {\n            flightSuretyData.registerAirline(airline, msg.sender);\n            return(success, 0, flightSuretyData.getRegisteredAirlineCount());\n        } else {\n            // Check for duplicates\n            bool isDuplicate = false;\n            for (uint256 i = 0; i < pendingAirlines[airline].length; i++) {\n                if (pendingAirlines[airline][i] == msg.sender) {\n                    isDuplicate = true;\n                    break;\n                }\n            }\n            require(!isDuplicate, \"Duplicate vote, you cannot vote for the same airline twice.\");\n            pendingAirlines[airline].push(msg.sender);\n            // Check if enough votes to register airline\n            if (pendingAirlines[airline].length >= flightSuretyData.getRegisteredAirlineCount().div(AIRLINE_REGISTRATION_REQUIRED_VOTES)) {\n                flightSuretyData.registerAirline(airline, msg.sender);\n                return(true, pendingAirlines[airline].length, flightSuretyData.getRegisteredAirlineCount());\n            }\n            return(false, pendingAirlines[airline].length, flightSuretyData.getRegisteredAirlineCount());\n        }\n    }\n\n    /**\n     * @dev Fund a registered airline\n     */\n    function fundAirline()\n        external\n        payable\n        requireIsOperational\n        requireIsAirlineRegistered(msg.sender)\n        requireAirlineIsNotFunded(msg.sender)\n        requireSufficientFunding(AIRLINE_REGISTRATION_FEE)\n        returns(bool)\n    {\n        address(uint160(address(flightSuretyData))).transfer(AIRLINE_REGISTRATION_FEE);\n        return flightSuretyData.fundAirline(msg.sender, AIRLINE_REGISTRATION_FEE);\n    }\n\n   /**\n    * @dev Register a future flight for insuring.\n    *\n    */\n    function registerFlight\n    (\n        string calldata flightNumber,\n        uint256 timestamp,\n        string calldata departureLocation,\n        string calldata arrivalLocation\n    )\n        external\n        requireIsOperational\n        requireIsAirlineFunded(msg.sender)\n    {\n        bytes32 flightKey = getFlightKey(msg.sender, flightNumber, timestamp);\n        flightSuretyData.registerFlight(\n            flightKey,\n            timestamp,\n            msg.sender,\n            flightNumber,\n            departureLocation,\n            arrivalLocation\n        );\n    }\n\n   /**\n    * @dev Called after oracle has updated flight status\n    *\n    */\n    function processFlightStatus(\n        address airline,\n        string memory flight,\n        uint256 timestamp,\n        uint8 statusCode\n    )\n        internal\n        requireIsOperational\n    {\n        flightSuretyData.processFlightStatus(airline, flight, timestamp, statusCode);\n    }\n\n\n    // Generate a request for oracles to fetch flight information\n    function fetchFlightStatus\n    (\n        address airline,\n        string calldata flight,\n        uint256 timestamp,\n        bytes32 flightKey\n    )\n        external\n        requireFlightIsRegistered(flightKey)\n        requireFlightIsNotLanded(flightKey)\n    {\n        uint8 index = getRandomIndex(msg.sender);\n\n        // Generate a unique key for storing the request\n        bytes32 key = keccak256(abi.encodePacked(index, airline, flight, timestamp));\n        oracleResponses[key] = ResponseInfo({requester: msg.sender, isOpen: true});\n\n        emit OracleRequest(index, airline, flight, timestamp);\n    }\n\n    function buyInsurance\n    (\n        bytes32 flightKey\n    )\n        public\n        payable\n        requireIsOperational\n        requireFlightIsRegistered(flightKey)\n        requireFlightIsNotLanded(flightKey)\n        requirePassengerNotInsuredForFlight(flightKey, msg.sender)\n        requireLessThanMaxInsurance()\n    {\n        address(uint160(address(flightSuretyData))).transfer(msg.value);\n        flightSuretyData.buyInsurance(flightKey, msg.sender, msg.value, INSURANCE_PAYOUT);\n    }\n\n    function pay() external requireIsOperational {\n        flightSuretyData.pay(msg.sender);\n    }\n\n\n\n    /********************************************************************************************/\n    /*                                     ORACLE MANAGEMENT                                    */\n    /********************************************************************************************/\n\n    // Incremented to add pseudo-randomness at various points\n    uint8 private nonce = 0;\n\n    // Fee to be paid when registering oracle\n    uint256 public constant REGISTRATION_FEE = 1 ether;\n\n    // Number of oracles that must respond for valid status\n    uint256 private constant MIN_RESPONSES = 3;\n\n    struct Oracle {\n        bool isRegistered;\n        uint8[3] indexes;\n    }\n\n    // Track all registered oracles\n    mapping(address => Oracle) private oracles;\n\n    // Model for responses from oracles\n    struct ResponseInfo {\n        // Account that requested status\n        address requester;\n        // If open, oracle responses are accepted\n        bool isOpen;\n        // Mapping key is the status code reported\n        mapping(uint8 => address[]) responses;\n    }\n\n    // Track all oracle responses\n    // Key = hash(index, flight, timestamp)\n    mapping(bytes32 => ResponseInfo) private oracleResponses;\n\n    // Event fired each time an oracle submits a response\n    event FlightStatusInfo(address airline, string flight, uint256 timestamp, uint8 status);\n    event OracleReport(address airline, string flight, uint256 timestamp, uint8 status);\n    event OracleRegistered(address oracle);\n    // Event fired when flight status request is submitted\n    // Oracles track this and if they have a matching index\n    // they fetch data and submit a response\n    event OracleRequest(uint8 index, address airline, string flight, uint256 timestamp);\n\n\n    // Register an oracle with the contract\n    function registerOracle() external payable {\n        // Require registration fee\n        require(msg.value >= REGISTRATION_FEE, \"Registration fee is required\");\n\n        uint8[3] memory indexes = generateIndexes(msg.sender);\n\n        oracles[msg.sender] = Oracle({isRegistered: true, indexes: indexes});\n\n        emit OracleRegistered(msg.sender);\n    }\n\n    function getMyIndexes() external view returns(uint8[3] memory) {\n        require(oracles[msg.sender].isRegistered, \"Not registered as an oracle\");\n\n        return oracles[msg.sender].indexes;\n    }\n\n    /* Called by oracle when a response is available to an outstanding request\n     * For the response to be accepted, there must be a pending request that is open\n     * and matches one of the three Indexes randomly assigned to the oracle at the\n     * time of registration (i.e. uninvited oracles are not welcome)\n     */\n    function submitOracleResponse(uint8 index, address airline, string calldata flight, uint256 timestamp, uint8 statusCode) external {\n        require(\n            (oracles[msg.sender].indexes[0] == index) ||\n            (oracles[msg.sender].indexes[1] == index) ||\n            (oracles[msg.sender].indexes[2] == index),\n            \"Index does not match oracle request\"\n        );\n\n        bytes32 key = keccak256(abi.encodePacked(index, airline, flight, timestamp));\n        require(oracleResponses[key].isOpen, \"Flight or timestamp do not match oracle request\");\n\n        oracleResponses[key].responses[statusCode].push(msg.sender);\n\n        // Information isn't considered verified until at least MIN_RESPONSES\n        // oracles respond with the *** same *** information\n        emit OracleReport(airline, flight, timestamp, statusCode);\n        if (oracleResponses[key].responses[statusCode].length >= MIN_RESPONSES) {\n\n            emit FlightStatusInfo(airline, flight, timestamp, statusCode);\n\n            // Handle flight status as appropriate\n            processFlightStatus(airline, flight, timestamp, statusCode);\n        }\n    }\n\n\n    function getFlightKey(address airline, string memory flight, uint256 timestamp) internal pure returns(bytes32) {\n        return keccak256(abi.encodePacked(airline, flight, timestamp));\n    }\n\n    // Returns array of three non-duplicating integers from 0-9\n    function generateIndexes(address account) internal returns(uint8[3] memory) {\n        uint8[3] memory indexes;\n        indexes[0] = getRandomIndex(account);\n\n        indexes[1] = indexes[0];\n        while(indexes[1] == indexes[0]) {\n            indexes[1] = getRandomIndex(account);\n        }\n\n        indexes[2] = indexes[1];\n        while((indexes[2] == indexes[0]) || (indexes[2] == indexes[1])) {\n            indexes[2] = getRandomIndex(account);\n        }\n\n        return indexes;\n    }\n\n    // Returns array of three non-duplicating integers from 0-9\n    function getRandomIndex(address account) internal returns (uint8) {\n        uint8 maxValue = 10;\n\n        // Pseudo random number...the incrementing nonce adds variation\n        uint8 random = uint8(uint256(keccak256(abi.encodePacked(blockhash(block.number - nonce++), account))) % maxValue);\n\n        if (nonce > 250) {\n            nonce = 0;  // Can only fetch blockhashes for last 256 blocks so we adapt\n        }\n\n        return random;\n    }\n\n    function () external payable {\n    }\n\n}\n\ncontract FlightSuretyData {\n    function isOperational() public view returns(bool);\n    function setOperatingStatus(bool mode) external;\n    function isAirlineRegistered(address airline) public view returns(bool);\n    function isAirlineFunded(address airline) public view returns(bool);\n    function isFlightRegistered(bytes32 flightKey) public view returns(bool);\n    function isFlightLanded(bytes32 flightKey) public view returns(bool);\n    function isPassengerInsuredForFlight(bytes32 flightKey, address passenger) public view returns(bool);\n    function registerAirline(address newAirline, address registeringAirline) external;\n    function fundAirline(address airline, uint256 amount) external returns(bool);\n    function getRegisteredAirlineCount() public view returns(uint256);\n    function getFundedAirlineCount() public view returns(uint256);\n    function registerFlight\n    (\n        bytes32 flightKey,\n        uint256 timestamp,\n        address airline,\n        string memory flightNumber,\n        string memory departureLocation,\n        string memory arrivalLocation\n    )\n        public\n        payable;\n    function getCountRegisteredFlights() public view returns(uint256);\n    function processFlightStatus(address airline, string calldata flight, uint256 timestamp, uint8 statusCode) external;\n    function buyInsurance(bytes32 flightKey, address passenger, uint256 amount, uint256 payout) external payable;\n    function creditInsurees(bytes32 flightKey) internal;\n    function pay(address payable payoutAddress) external;\n    function getFlightKey(address airline, string memory flight, uint256 timestamp) internal pure returns(bytes32);\n    function fund() public payable;\n}\n",
  "sourcePath": "/Users/vimalkansal/udacity/udacity_FlightSurety/contracts/FlightSuretyApp.sol",
  "compiler": {
    "name": "solc",
    "version": "0.5.17+commit.d19bba13.Emscripten.clang"
  },
  "schemaVersion": "3.0.11",
  "updatedAt": "2021-12-05T04:02:11.784Z",
  "devdoc": {
    "methods": {
      "constructor": {
        "details": "Contract constructor    "
      },
      "fundAirline()": {
        "details": "Fund a registered airline"
      },
      "isOperational()": {
        "details": "Check if the contract is operational"
      },
      "registerAirline(address)": {
        "details": "Add an airline to the registration queue",
        "return": "Success/Failure, Votes cast for airline, current member count"
      },
      "registerFlight(string,uint256,string,string)": {
        "details": "Register a future flight for insuring.    "
      },
      "setOperatingStatus(bool)": {
        "details": "Sets contract operations on/off When operational mode is disabled, all write transactions except for this one will fail"
      }
    }
  },
  "userdoc": {
    "methods": {},
    "notice": "************************************************ "
  }
}